{
  "contractName": "ItemManager",
  "abi": [
    {
      "anonymous": false,
      "inputs": [
        {
          "indexed": true,
          "internalType": "uint256",
          "name": "itemIndex",
          "type": "uint256"
        },
        {
          "indexed": false,
          "internalType": "uint8",
          "name": "state",
          "type": "uint8"
        }
      ],
      "name": "ItemStateChanged",
      "type": "event"
    },
    {
      "anonymous": false,
      "inputs": [
        {
          "indexed": true,
          "internalType": "address",
          "name": "previousOwner",
          "type": "address"
        },
        {
          "indexed": true,
          "internalType": "address",
          "name": "newOwner",
          "type": "address"
        }
      ],
      "name": "OwnershipTransferred",
      "type": "event"
    },
    {
      "stateMutability": "payable",
      "type": "fallback",
      "payable": true
    },
    {
      "inputs": [
        {
          "internalType": "uint256",
          "name": "",
          "type": "uint256"
        }
      ],
      "name": "items",
      "outputs": [
        {
          "internalType": "contract Item",
          "name": "_item",
          "type": "address"
        },
        {
          "internalType": "contract Order",
          "name": "_order",
          "type": "address"
        },
        {
          "internalType": "enum ItemManager.ItemState",
          "name": "_state",
          "type": "uint8"
        }
      ],
      "stateMutability": "view",
      "type": "function",
      "constant": true
    },
    {
      "inputs": [],
      "name": "owner",
      "outputs": [
        {
          "internalType": "address",
          "name": "",
          "type": "address"
        }
      ],
      "stateMutability": "view",
      "type": "function",
      "constant": true
    },
    {
      "inputs": [
        {
          "internalType": "address",
          "name": "newOwner",
          "type": "address"
        }
      ],
      "name": "transferOwnership",
      "outputs": [],
      "stateMutability": "nonpayable",
      "type": "function"
    },
    {
      "stateMutability": "payable",
      "type": "receive",
      "payable": true
    },
    {
      "inputs": [
        {
          "internalType": "string",
          "name": "_name",
          "type": "string"
        },
        {
          "internalType": "string",
          "name": "_specifications",
          "type": "string"
        },
        {
          "internalType": "string",
          "name": "_rawDataUrl",
          "type": "string"
        },
        {
          "internalType": "bytes32",
          "name": "_rawDataHash",
          "type": "bytes32"
        },
        {
          "internalType": "uint256",
          "name": "_price",
          "type": "uint256"
        }
      ],
      "name": "createItem",
      "outputs": [],
      "stateMutability": "nonpayable",
      "type": "function"
    },
    {
      "inputs": [
        {
          "internalType": "uint256",
          "name": "_itemIndex",
          "type": "uint256"
        }
      ],
      "name": "triggerDelivered",
      "outputs": [],
      "stateMutability": "nonpayable",
      "type": "function"
    },
    {
      "inputs": [
        {
          "internalType": "uint256",
          "name": "_itemIndex",
          "type": "uint256"
        },
        {
          "internalType": "address",
          "name": "_purchaser",
          "type": "address"
        },
        {
          "internalType": "address",
          "name": "_owner",
          "type": "address"
        }
      ],
      "name": "triggerPayment",
      "outputs": [],
      "stateMutability": "payable",
      "type": "function",
      "payable": true
    },
    {
      "inputs": [
        {
          "internalType": "uint256",
          "name": "_itemIndex",
          "type": "uint256"
        },
        {
          "internalType": "uint256",
          "name": "_price",
          "type": "uint256"
        }
      ],
      "name": "triggerResale",
      "outputs": [],
      "stateMutability": "nonpayable",
      "type": "function"
    },
    {
      "inputs": [
        {
          "internalType": "uint256",
          "name": "_itemIndex",
          "type": "uint256"
        }
      ],
      "name": "triggerCancel",
      "outputs": [],
      "stateMutability": "nonpayable",
      "type": "function"
    },
    {
      "inputs": [],
      "name": "currentItemIndex",
      "outputs": [
        {
          "internalType": "uint256",
          "name": "",
          "type": "uint256"
        }
      ],
      "stateMutability": "view",
      "type": "function",
      "constant": true
    }
  ],
  "bytecode": "0x608060405234801561001057600080fd5b5061002d61002261003260201b60201c565b61003a60201b60201c565b6100fe565b600033905090565b60008060009054906101000a900473ffffffffffffffffffffffffffffffffffffffff169050816000806101000a81548173ffffffffffffffffffffffffffffffffffffffff021916908373ffffffffffffffffffffffffffffffffffffffff1602179055508173ffffffffffffffffffffffffffffffffffffffff168173ffffffffffffffffffffffffffffffffffffffff167f8be0079c531659141344cd1fd0a4f28419497f9722a3daafe3b4186f6b6457e060405160405180910390a35050565b6153fc806200010e6000396000f3fe608060405260043610620000975760003560e01c8063bfb231d21162000061578063bfb231d2146200015d578063c2601eb914620001a3578063d2a9da5914620001d1578063d33a0cf414620001ff578063f2fde38b146200021f576200009f565b80633510608714620000a1578063574bd60c14620000cf578063674a04e214620000fd5780638da5cb5b146200012d576200009f565b366200009f57005b005b348015620000ae57600080fd5b50620000cd6004803603810190620000c7919062001535565b6200024d565b005b348015620000dc57600080fd5b50620000fb6004803603810190620000f591906200161a565b620003b1565b005b3480156200010a57600080fd5b506200011562000673565b6040516200012491906200165d565b60405180910390f35b3480156200013a57600080fd5b506200014562000686565b604051620001549190620016bf565b60405180910390f35b3480156200016a57600080fd5b506200018960048036038101906200018391906200161a565b620006af565b6040516200019a9392919062001800565b60405180910390f35b348015620001b057600080fd5b50620001cf6004803603810190620001c991906200161a565b62000726565b005b348015620001de57600080fd5b50620001fd6004803603810190620001f791906200183d565b62000af5565b005b6200021d6004803603810190620002179190620018b5565b62000e70565b005b3480156200022c57600080fd5b506200024b600480360381019062000245919062001911565b62001139565b005b60006200025b60016200123d565b90506000306200026a6200124b565b8888888888886040516200027e906200132d565b6200029198979695949392919062001a0c565b604051809103906000f080158015620002ae573d6000803e3d6000fd5b5090506000600260008481526020019081526020016000209050818160000160006101000a81548173ffffffffffffffffffffffffffffffffffffffff021916908373ffffffffffffffffffffffffffffffffffffffff16021790555060008160010160146101000a81548160ff0219169083600381111562000336576200033562001780565b5b0217905550827f3031643476ad6f4156cd7d9fedda4a646bdfb198a9084c479369e26451df57ed8260010160149054906101000a900460ff16600381111562000384576200038362001780565b5b60405162000393919062001acd565b60405180910390a2620003a7600162001253565b5050505050505050565b80620003be60016200123d565b811062000402576040517f08c379a0000000000000000000000000000000000000000000000000000000008152600401620003f99062001b3a565b60405180910390fd5b6000600260008481526020019081526020016000209050620004236200124b565b73ffffffffffffffffffffffffffffffffffffffff166002600085815260200190815260200160002060010160009054906101000a900473ffffffffffffffffffffffffffffffffffffffff1673ffffffffffffffffffffffffffffffffffffffff1614620004c9576040517f08c379a0000000000000000000000000000000000000000000000000000000008152600401620004c09062001bd2565b60405180910390fd5b60016003811115620004e057620004df62001780565b5b8160010160149054906101000a900460ff16600381111562000507576200050662001780565b5b146200054a576040517f08c379a0000000000000000000000000000000000000000000000000000000008152600401620005419062001c6a565b60405180910390fd5b8060000160009054906101000a900473ffffffffffffffffffffffffffffffffffffffff1673ffffffffffffffffffffffffffffffffffffffff1663a2b40d1960006040518263ffffffff1660e01b8152600401620005aa919062001ccf565b600060405180830381600087803b158015620005c557600080fd5b505af1158015620005da573d6000803e3d6000fd5b5050505060038160010160146101000a81548160ff0219169083600381111562000609576200060862001780565b5b0217905550827f3031643476ad6f4156cd7d9fedda4a646bdfb198a9084c479369e26451df57ed8260010160149054906101000a900460ff16600381111562000657576200065662001780565b5b60405162000666919062001acd565b60405180910390a2505050565b60006200068160016200123d565b905090565b60008060009054906101000a900473ffffffffffffffffffffffffffffffffffffffff16905090565b60026020528060005260406000206000915090508060000160009054906101000a900473ffffffffffffffffffffffffffffffffffffffff16908060010160009054906101000a900473ffffffffffffffffffffffffffffffffffffffff16908060010160149054906101000a900460ff16905083565b806200073360016200123d565b811062000777576040517f08c379a00000000000000000000000000000000000000000000000000000000081526004016200076e9062001b3a565b60405180910390fd5b600160038111156200078e576200078d62001780565b5b6002600084815260200190815260200160002060010160149054906101000a900460ff166003811115620007c757620007c662001780565b5b146200080a576040517f08c379a0000000000000000000000000000000000000000000000000000000008152600401620008019062001d62565b60405180910390fd5b620008146200124b565b73ffffffffffffffffffffffffffffffffffffffff166002600084815260200190815260200160002060010160009054906101000a900473ffffffffffffffffffffffffffffffffffffffff1673ffffffffffffffffffffffffffffffffffffffff1614620008ba576040517f08c379a0000000000000000000000000000000000000000000000000000000008152600401620008b19062001bd2565b60405180910390fd5b6002600083815260200190815260200160002060000160009054906101000a900473ffffffffffffffffffffffffffffffffffffffff1673ffffffffffffffffffffffffffffffffffffffff16636d4354216002600085815260200190815260200160002060010160009054906101000a900473ffffffffffffffffffffffffffffffffffffffff1673ffffffffffffffffffffffffffffffffffffffff16635a77dc466040518163ffffffff1660e01b8152600401602060405180830381865afa1580156200098e573d6000803e3d6000fd5b505050506040513d601f19601f82011682018060405250810190620009b4919062001d9b565b6002600086815260200190815260200160002060010160009054906101000a900473ffffffffffffffffffffffffffffffffffffffff166040518363ffffffff1660e01b815260040162000a0a92919062001dcd565b600060405180830381600087803b15801562000a2557600080fd5b505af115801562000a3a573d6000803e3d6000fd5b50505050600280600084815260200190815260200160002060010160146101000a81548160ff0219169083600381111562000a7a5762000a7962001780565b5b0217905550817f3031643476ad6f4156cd7d9fedda4a646bdfb198a9084c479369e26451df57ed6002600085815260200190815260200160002060010160149054906101000a900460ff16600381111562000ada5762000ad962001780565b5b60405162000ae9919062001acd565b60405180910390a25050565b8162000b0260016200123d565b811062000b46576040517f08c379a000000000000000000000000000000000000000000000000000000000815260040162000b3d9062001b3a565b60405180910390fd5b8262000b516200124b565b73ffffffffffffffffffffffffffffffffffffffff166002600083815260200190815260200160002060000160009054906101000a900473ffffffffffffffffffffffffffffffffffffffff1673ffffffffffffffffffffffffffffffffffffffff16638da5cb5b6040518163ffffffff1660e01b8152600401602060405180830381865afa15801562000be9573d6000803e3d6000fd5b505050506040513d601f19601f8201168201806040525081019062000c0f919062001d9b565b73ffffffffffffffffffffffffffffffffffffffff161462000c68576040517f08c379a000000000000000000000000000000000000000000000000000000000815260040162000c5f9062001e70565b60405180910390fd5b60006002600086815260200190815260200160002090506002600381111562000c965762000c9562001780565b5b8160010160149054906101000a900460ff16600381111562000cbd5762000cbc62001780565b5b148062000d04575060038081111562000cdb5762000cda62001780565b5b8160010160149054906101000a900460ff16600381111562000d025762000d0162001780565b5b145b62000d46576040517f08c379a000000000000000000000000000000000000000000000000000000000815260040162000d3d9062001f2e565b60405180910390fd5b8060000160009054906101000a900473ffffffffffffffffffffffffffffffffffffffff1673ffffffffffffffffffffffffffffffffffffffff1663a2b40d19856040518263ffffffff1660e01b815260040162000da591906200165d565b600060405180830381600087803b15801562000dc057600080fd5b505af115801562000dd5573d6000803e3d6000fd5b5050505060008160010160146101000a81548160ff0219169083600381111562000e045762000e0362001780565b5b0217905550847f3031643476ad6f4156cd7d9fedda4a646bdfb198a9084c479369e26451df57ed8260010160149054906101000a900460ff16600381111562000e525762000e5162001780565b5b60405162000e61919062001acd565b60405180910390a25050505050565b8262000e7d60016200123d565b811062000ec1576040517f08c379a000000000000000000000000000000000000000000000000000000000815260040162000eb89062001b3a565b60405180910390fd5b60006002600086815260200190815260200160002090508060000160009054906101000a900473ffffffffffffffffffffffffffffffffffffffff1673ffffffffffffffffffffffffffffffffffffffff1662000f1d6200124b565b73ffffffffffffffffffffffffffffffffffffffff161462000f76576040517f08c379a000000000000000000000000000000000000000000000000000000000815260040162000f6d9062001fc6565b60405180910390fd5b6000600381111562000f8d5762000f8c62001780565b5b8160010160149054906101000a900460ff16600381111562000fb45762000fb362001780565b5b1462000ff7576040517f08c379a000000000000000000000000000000000000000000000000000000000815260040162000fee9062001c6a565b60405180910390fd5b60003485858460000160009054906101000a900473ffffffffffffffffffffffffffffffffffffffff166040516200102f906200133b565b6200103d9392919062001fe8565b6040518091039082f09050801580156200105b573d6000803e3d6000fd5b509050808260010160006101000a81548173ffffffffffffffffffffffffffffffffffffffff021916908373ffffffffffffffffffffffffffffffffffffffff16021790555060018260010160146101000a81548160ff02191690836003811115620010cc57620010cb62001780565b5b0217905550857f3031643476ad6f4156cd7d9fedda4a646bdfb198a9084c479369e26451df57ed8360010160149054906101000a900460ff1660038111156200111a576200111962001780565b5b60405162001129919062001acd565b60405180910390a2505050505050565b620011436200124b565b73ffffffffffffffffffffffffffffffffffffffff166200116362000686565b73ffffffffffffffffffffffffffffffffffffffff1614620011bc576040517f08c379a0000000000000000000000000000000000000000000000000000000008152600401620011b39062002075565b60405180910390fd5b600073ffffffffffffffffffffffffffffffffffffffff168173ffffffffffffffffffffffffffffffffffffffff1614156200122f576040517f08c379a000000000000000000000000000000000000000000000000000000000815260040162001226906200210d565b60405180910390fd5b6200123a8162001269565b50565b600081600001549050919050565b600033905090565b6001816000016000828254019250508190555050565b60008060009054906101000a900473ffffffffffffffffffffffffffffffffffffffff169050816000806101000a81548173ffffffffffffffffffffffffffffffffffffffff021916908373ffffffffffffffffffffffffffffffffffffffff1602179055508173ffffffffffffffffffffffffffffffffffffffff168173ffffffffffffffffffffffffffffffffffffffff167f8be0079c531659141344cd1fd0a4f28419497f9722a3daafe3b4186f6b6457e060405160405180910390a35050565b611650806200213083390190565b611c47806200378083390190565b6000604051905090565b600080fd5b600080fd5b600080fd5b600080fd5b6000601f19601f8301169050919050565b7f4e487b7100000000000000000000000000000000000000000000000000000000600052604160045260246000fd5b620013b28262001367565b810181811067ffffffffffffffff82111715620013d457620013d362001378565b5b80604052505050565b6000620013e962001349565b9050620013f78282620013a7565b919050565b600067ffffffffffffffff8211156200141a576200141962001378565b5b620014258262001367565b9050602081019050919050565b82818337600083830152505050565b6000620014586200145284620013fc565b620013dd565b90508281526020810184848401111562001477576200147662001362565b5b6200148484828562001432565b509392505050565b600082601f830112620014a457620014a36200135d565b5b8135620014b684826020860162001441565b91505092915050565b6000819050919050565b620014d481620014bf565b8114620014e057600080fd5b50565b600081359050620014f481620014c9565b92915050565b6000819050919050565b6200150f81620014fa565b81146200151b57600080fd5b50565b6000813590506200152f8162001504565b92915050565b600080600080600060a0868803121562001554576200155362001353565b5b600086013567ffffffffffffffff81111562001575576200157462001358565b5b62001583888289016200148c565b955050602086013567ffffffffffffffff811115620015a757620015a662001358565b5b620015b5888289016200148c565b945050604086013567ffffffffffffffff811115620015d957620015d862001358565b5b620015e7888289016200148c565b9350506060620015fa88828901620014e3565b92505060806200160d888289016200151e565b9150509295509295909350565b60006020828403121562001633576200163262001353565b5b600062001643848285016200151e565b91505092915050565b6200165781620014fa565b82525050565b60006020820190506200167460008301846200164c565b92915050565b600073ffffffffffffffffffffffffffffffffffffffff82169050919050565b6000620016a7826200167a565b9050919050565b620016b9816200169a565b82525050565b6000602082019050620016d66000830184620016ae565b92915050565b6000819050919050565b60006200170762001701620016fb846200167a565b620016dc565b6200167a565b9050919050565b60006200171b82620016e6565b9050919050565b60006200172f826200170e565b9050919050565b620017418162001722565b82525050565b60006200175482620016e6565b9050919050565b6000620017688262001747565b9050919050565b6200177a816200175b565b82525050565b7f4e487b7100000000000000000000000000000000000000000000000000000000600052602160045260246000fd5b60048110620017c357620017c262001780565b5b50565b6000819050620017d682620017af565b919050565b6000620017e882620017c6565b9050919050565b620017fa81620017db565b82525050565b600060608201905062001817600083018662001736565b6200182660208301856200176f565b620018356040830184620017ef565b949350505050565b6000806040838503121562001857576200185662001353565b5b600062001867858286016200151e565b92505060206200187a858286016200151e565b9150509250929050565b6200188f816200169a565b81146200189b57600080fd5b50565b600081359050620018af8162001884565b92915050565b600080600060608486031215620018d157620018d062001353565b5b6000620018e1868287016200151e565b9350506020620018f4868287016200189e565b925050604062001907868287016200189e565b9150509250925092565b6000602082840312156200192a576200192962001353565b5b60006200193a848285016200189e565b91505092915050565b600062001950826200170e565b9050919050565b620019628162001943565b82525050565b600081519050919050565b600082825260208201905092915050565b60005b83811015620019a457808201518184015260208101905062001987565b83811115620019b4576000848401525b50505050565b6000620019c78262001968565b620019d3818562001973565b9350620019e581856020860162001984565b620019f08162001367565b840191505092915050565b62001a0681620014bf565b82525050565b60006101008201905062001a24600083018b62001957565b62001a33602083018a620016ae565b818103604083015262001a478189620019ba565b9050818103606083015262001a5d8188620019ba565b9050818103608083015262001a738187620019ba565b905062001a8460a0830186620019fb565b62001a9360c08301856200164c565b62001aa260e08301846200164c565b9998505050505050505050565b600060ff82169050919050565b62001ac78162001aaf565b82525050565b600060208201905062001ae4600083018462001abc565b92915050565b7f4974656d4d616e616765723a206974656d206e6f7420666f756e642100000000600082015250565b600062001b22601c8362001973565b915062001b2f8262001aea565b602082019050919050565b6000602082019050818103600083015262001b558162001b13565b9050919050565b7f4974656d4d616e616765723a20746869732066756e6374696f6e206d7573742060008201527f62652063616c6c2066726f6d204f7264657220636f6e74726163740000000000602082015250565b600062001bba603b8362001973565b915062001bc78262001b5c565b604082019050919050565b6000602082019050818103600083015262001bed8162001bab565b9050919050565b7f4974656d4d616e616765723a2074686973206974656d2069732066757274686560008201527f72206f6e20636861696e00000000000000000000000000000000000000000000602082015250565b600062001c52602a8362001973565b915062001c5f8262001bf4565b604082019050919050565b6000602082019050818103600083015262001c858162001c43565b9050919050565b6000819050919050565b600062001cb762001cb162001cab8462001c8c565b620016dc565b620014fa565b9050919050565b62001cc98162001c96565b82525050565b600060208201905062001ce6600083018462001cbe565b92915050565b7f4974656d4d616e616765723a2074686973206974656d20686173206e6f74206260008201527f65656e2070757263686173656400000000000000000000000000000000000000602082015250565b600062001d4a602d8362001973565b915062001d578262001cec565b604082019050919050565b6000602082019050818103600083015262001d7d8162001d3b565b9050919050565b60008151905062001d958162001884565b92915050565b60006020828403121562001db45762001db362001353565b5b600062001dc48482850162001d84565b91505092915050565b600060408201905062001de46000830185620016ae565b62001df36020830184620016ae565b9392505050565b7f4974656d4d616e616765723a2063616c6c6572206973206e6f7420746865204960008201527f74656d206f776e65720000000000000000000000000000000000000000000000602082015250565b600062001e5860298362001973565b915062001e658262001dfa565b604082019050919050565b6000602082019050818103600083015262001e8b8162001e49565b9050919050565b7f4974656d4d616e616765723a2054686973206974656d207374617465206d757360008201527f74206265202244656c69766572656422206f72202243616e63656c6c6564222060208201527f746f206d616b6520666f7220726573616c652100000000000000000000000000604082015250565b600062001f1660538362001973565b915062001f238262001e92565b606082019050919050565b6000602082019050818103600083015262001f498162001f07565b9050919050565b7f4974656d4d616e616765723a20746869732066756e6374696f6e206d7573742060008201527f62652063616c6c2066726f6d204974656d20636f6e7472616374000000000000602082015250565b600062001fae603a8362001973565b915062001fbb8262001f50565b604082019050919050565b6000602082019050818103600083015262001fe18162001f9f565b9050919050565b600060608201905062001fff6000830186620016ae565b6200200e6020830185620016ae565b6200201d604083018462001736565b949350505050565b7f4f776e61626c653a2063616c6c6572206973206e6f7420746865206f776e6572600082015250565b60006200205d60208362001973565b91506200206a8262002025565b602082019050919050565b6000602082019050818103600083015262002090816200204e565b9050919050565b7f4f776e61626c653a206e6577206f776e657220697320746865207a65726f206160008201527f6464726573730000000000000000000000000000000000000000000000000000602082015250565b6000620020f560268362001973565b9150620021028262002097565b604082019050919050565b600060208201905081810360008301526200212881620020e6565b905091905056fe60806040523480156200001157600080fd5b5060405162001650380380620016508339818101604052810190620000379190620004a7565b876000806101000a81548173ffffffffffffffffffffffffffffffffffffffff021916908373ffffffffffffffffffffffffffffffffffffffff16021790555086600160006101000a81548173ffffffffffffffffffffffffffffffffffffffff021916908373ffffffffffffffffffffffffffffffffffffffff1602179055508560039080519060200190620000d092919062000126565b508460049080519060200190620000e992919062000126565b5083600590805190602001906200010292919062000126565b50826002819055508160078190555080600681905550505050505050505062000632565b8280546200013490620005fc565b90600052602060002090601f016020900481019282620001585760008555620001a4565b82601f106200017357805160ff1916838001178555620001a4565b82800160010185558215620001a4579182015b82811115620001a357825182559160200191906001019062000186565b5b509050620001b39190620001b7565b5090565b5b80821115620001d2576000816000905550600101620001b8565b5090565b6000604051905090565b600080fd5b600080fd5b600073ffffffffffffffffffffffffffffffffffffffff82169050919050565b60006200021782620001ea565b9050919050565b60006200022b826200020a565b9050919050565b6200023d816200021e565b81146200024957600080fd5b50565b6000815190506200025d8162000232565b92915050565b60006200027082620001ea565b9050919050565b620002828162000263565b81146200028e57600080fd5b50565b600081519050620002a28162000277565b92915050565b600080fd5b600080fd5b6000601f19601f8301169050919050565b7f4e487b7100000000000000000000000000000000000000000000000000000000600052604160045260246000fd5b620002fd82620002b2565b810181811067ffffffffffffffff821117156200031f576200031e620002c3565b5b80604052505050565b600062000334620001d6565b9050620003428282620002f2565b919050565b600067ffffffffffffffff821115620003655762000364620002c3565b5b6200037082620002b2565b9050602081019050919050565b60005b838110156200039d57808201518184015260208101905062000380565b83811115620003ad576000848401525b50505050565b6000620003ca620003c48462000347565b62000328565b905082815260208101848484011115620003e957620003e8620002ad565b5b620003f68482856200037d565b509392505050565b600082601f830112620004165762000415620002a8565b5b815162000428848260208601620003b3565b91505092915050565b6000819050919050565b620004468162000431565b81146200045257600080fd5b50565b60008151905062000466816200043b565b92915050565b6000819050919050565b62000481816200046c565b81146200048d57600080fd5b50565b600081519050620004a18162000476565b92915050565b600080600080600080600080610100898b031215620004cb57620004ca620001e0565b5b6000620004db8b828c016200024c565b9850506020620004ee8b828c0162000291565b975050604089015167ffffffffffffffff811115620005125762000511620001e5565b5b620005208b828c01620003fe565b965050606089015167ffffffffffffffff811115620005445762000543620001e5565b5b620005528b828c01620003fe565b955050608089015167ffffffffffffffff811115620005765762000575620001e5565b5b620005848b828c01620003fe565b94505060a0620005978b828c0162000455565b93505060c0620005aa8b828c0162000490565b92505060e0620005bd8b828c0162000490565b9150509295985092959890939650565b7f4e487b7100000000000000000000000000000000000000000000000000000000600052602260045260246000fd5b600060028204905060018216806200061557607f821691505b602082108114156200062c576200062b620005cd565b5b50919050565b61100e80620006426000396000f3fe6080604052600436106100a05760003560e01c80636a956afd116100645780636a956afd146102c45780636d435421146102ed5780638da5cb5b14610316578063a035b1fe14610341578063a2b40d191461036c578063dc2ca88e14610395576101eb565b806306fdde03146101ed5780631b2e320c14610218578063230b9da314610243578063470dd8321461026e57806363fbab4814610299576101eb565b366101eb576000600754116100ea576040517f08c379a00000000000000000000000000000000000000000000000000000000081526004016100e190610a1f565b60405180910390fd5b346007541461012e576040517f08c379a000000000000000000000000000000000000000000000000000000000815260040161012590610ab1565b60405180910390fd5b60008054906101000a900473ffffffffffffffffffffffffffffffffffffffff1673ffffffffffffffffffffffffffffffffffffffff1663d33a0cf4346006546101766103c0565b600160009054906101000a900473ffffffffffffffffffffffffffffffffffffffff166040518563ffffffff1660e01b81526004016101b793929190610b2b565b6000604051808303818588803b1580156101d057600080fd5b505af11580156101e4573d6000803e3d6000fd5b5050505050005b005b3480156101f957600080fd5b506102026103c8565b60405161020f9190610bea565b60405180910390f35b34801561022457600080fd5b5061022d610456565b60405161023a9190610c25565b60405180910390f35b34801561024f57600080fd5b5061025861045c565b6040516102659190610c9f565b60405180910390f35b34801561027a57600080fd5b50610283610480565b6040516102909190610bea565b60405180910390f35b3480156102a557600080fd5b506102ae61050e565b6040516102bb9190610cba565b60405180910390f35b3480156102d057600080fd5b506102eb60048036038101906102e69190610d06565b610514565b005b3480156102f957600080fd5b50610314600480360381019061030f9190610d33565b61069b565b005b34801561032257600080fd5b5061032b61080a565b6040516103389190610d73565b60405180910390f35b34801561034d57600080fd5b50610356610830565b6040516103639190610cba565b60405180910390f35b34801561037857600080fd5b50610393600480360381019061038e9190610dba565b610836565b005b3480156103a157600080fd5b506103aa610934565b6040516103b79190610bea565b60405180910390f35b600033905090565b600380546103d590610e16565b80601f016020809104026020016040519081016040528092919081815260200182805461040190610e16565b801561044e5780601f106104235761010080835404028352916020019161044e565b820191906000526020600020905b81548152906001019060200180831161043157829003601f168201915b505050505081565b60025481565b60008054906101000a900473ffffffffffffffffffffffffffffffffffffffff1681565b6004805461048d90610e16565b80601f01602080910402602001604051908101604052809291908181526020018280546104b990610e16565b80156105065780601f106104db57610100808354040283529160200191610506565b820191906000526020600020905b8154815290600101906020018083116104e957829003601f168201915b505050505081565b60065481565b600073ffffffffffffffffffffffffffffffffffffffff168173ffffffffffffffffffffffffffffffffffffffff161415610584576040517f08c379a000000000000000000000000000000000000000000000000000000000815260040161057b90610eba565b60405180910390fd5b6000600754146105c9576040517f08c379a00000000000000000000000000000000000000000000000000000000081526004016105c090610f26565b60405180910390fd5b6000600160009054906101000a900473ffffffffffffffffffffffffffffffffffffffff16905081600160006101000a81548173ffffffffffffffffffffffffffffffffffffffff021916908373ffffffffffffffffffffffffffffffffffffffff1602179055508173ffffffffffffffffffffffffffffffffffffffff168173ffffffffffffffffffffffffffffffffffffffff167fc8894f26f396ce8c004245c8b7cd1b92103a6e4302fcbab883987149ac01b7ec600060405161068f9190610d73565b60405180910390a35050565b6106a36103c0565b73ffffffffffffffffffffffffffffffffffffffff1660008054906101000a900473ffffffffffffffffffffffffffffffffffffffff1673ffffffffffffffffffffffffffffffffffffffff1614610730576040517f08c379a000000000000000000000000000000000000000000000000000000000815260040161072790610fb8565b60405180910390fd5b6000600160009054906101000a900473ffffffffffffffffffffffffffffffffffffffff16905082600160006101000a81548173ffffffffffffffffffffffffffffffffffffffff021916908373ffffffffffffffffffffffffffffffffffffffff16021790555060006007819055508273ffffffffffffffffffffffffffffffffffffffff168173ffffffffffffffffffffffffffffffffffffffff167fc8894f26f396ce8c004245c8b7cd1b92103a6e4302fcbab883987149ac01b7ec846040516107fd9190610d73565b60405180910390a3505050565b600160009054906101000a900473ffffffffffffffffffffffffffffffffffffffff1681565b60075481565b61083e6103c0565b73ffffffffffffffffffffffffffffffffffffffff16600160009054906101000a900473ffffffffffffffffffffffffffffffffffffffff1673ffffffffffffffffffffffffffffffffffffffff1614806108eb575061089c6103c0565b73ffffffffffffffffffffffffffffffffffffffff1660008054906101000a900473ffffffffffffffffffffffffffffffffffffffff1673ffffffffffffffffffffffffffffffffffffffff16145b61092a576040517f08c379a000000000000000000000000000000000000000000000000000000000815260040161092190610fb8565b60405180910390fd5b8060078190555050565b6005805461094190610e16565b80601f016020809104026020016040519081016040528092919081815260200182805461096d90610e16565b80156109ba5780601f1061098f576101008083540402835291602001916109ba565b820191906000526020600020905b81548152906001019060200180831161099d57829003601f168201915b505050505081565b600082825260208201905092915050565b7f4974656d3a2074686973204974656d206973206e6f7420666f722073616c6500600082015250565b6000610a09601f836109c2565b9150610a14826109d3565b602082019050919050565b60006020820190508181036000830152610a38816109fc565b9050919050565b7f4974656d3a206f6e6c792066756c6c207061796d656e7473206163636570746560008201527f6400000000000000000000000000000000000000000000000000000000000000602082015250565b6000610a9b6021836109c2565b9150610aa682610a3f565b604082019050919050565b60006020820190508181036000830152610aca81610a8e565b9050919050565b6000819050919050565b610ae481610ad1565b82525050565b600073ffffffffffffffffffffffffffffffffffffffff82169050919050565b6000610b1582610aea565b9050919050565b610b2581610b0a565b82525050565b6000606082019050610b406000830186610adb565b610b4d6020830185610b1c565b610b5a6040830184610b1c565b949350505050565b600081519050919050565b60005b83811015610b8b578082015181840152602081019050610b70565b83811115610b9a576000848401525b50505050565b6000601f19601f8301169050919050565b6000610bbc82610b62565b610bc681856109c2565b9350610bd6818560208601610b6d565b610bdf81610ba0565b840191505092915050565b60006020820190508181036000830152610c048184610bb1565b905092915050565b6000819050919050565b610c1f81610c0c565b82525050565b6000602082019050610c3a6000830184610c16565b92915050565b6000819050919050565b6000610c65610c60610c5b84610aea565b610c40565b610aea565b9050919050565b6000610c7782610c4a565b9050919050565b6000610c8982610c6c565b9050919050565b610c9981610c7e565b82525050565b6000602082019050610cb46000830184610c90565b92915050565b6000602082019050610ccf6000830184610adb565b92915050565b600080fd5b610ce381610b0a565b8114610cee57600080fd5b50565b600081359050610d0081610cda565b92915050565b600060208284031215610d1c57610d1b610cd5565b5b6000610d2a84828501610cf1565b91505092915050565b60008060408385031215610d4a57610d49610cd5565b5b6000610d5885828601610cf1565b9250506020610d6985828601610cf1565b9150509250929050565b6000602082019050610d886000830184610b1c565b92915050565b610d9781610ad1565b8114610da257600080fd5b50565b600081359050610db481610d8e565b92915050565b600060208284031215610dd057610dcf610cd5565b5b6000610dde84828501610da5565b91505092915050565b7f4e487b7100000000000000000000000000000000000000000000000000000000600052602260045260246000fd5b60006002820490506001821680610e2e57607f821691505b60208210811415610e4257610e41610de7565b5b50919050565b7f4f776e61626c653a206e6577206f776e657220697320746865207a65726f206160008201527f6464726573730000000000000000000000000000000000000000000000000000602082015250565b6000610ea46026836109c2565b9150610eaf82610e48565b604082019050919050565b60006020820190508181036000830152610ed381610e97565b9050919050565b7f4974656d3a2074686973204974656d20697320666f722073616c650000000000600082015250565b6000610f10601b836109c2565b9150610f1b82610eda565b602082019050919050565b60006020820190508181036000830152610f3f81610f03565b9050919050565b7f4974656d3a2063616c6c6572206973206e6f7420746865206f776e6572206f7260008201527f20706172656e7420636f6e747261637400000000000000000000000000000000602082015250565b6000610fa26030836109c2565b9150610fad82610f46565b604082019050919050565b60006020820190508181036000830152610fd181610f95565b905091905056fea2646970667358221220720dec28c16ff72115c586395b6a279735aeaaaea6a73f536f94e640caf9c07b64736f6c634300080b0033608060405260405162001c4738038062001c478339818101604052810190620000299190620002be565b600062015180426200003c919062000353565b905062000059816000620001c460201b62000efb1790919060201c565b83600160006101000a81548173ffffffffffffffffffffffffffffffffffffffff021916908373ffffffffffffffffffffffffffffffffffffffff16021790555082600260006101000a81548173ffffffffffffffffffffffffffffffffffffffff021916908373ffffffffffffffffffffffffffffffffffffffff16021790555081600360006101000a81548173ffffffffffffffffffffffffffffffffffffffff021916908373ffffffffffffffffffffffffffffffffffffffff1602179055506000600360146101000a81548160ff02191690836004811115620001455762000144620003b0565b5b02179055507f6e9eb88a2b4685b02dacc5a724c248755eee555f7f388e9aadab99236cc7b3de6200017b620001f360201b60201c565b600360149054906101000a900460ff166004811115620001a0576200019f620003b0565b5b83604051620001b29392919062000433565b60405180910390a15050505062000470565b808260000160006101000a81548167ffffffffffffffff021916908367ffffffffffffffff1602179055505050565b600033905090565b600080fd5b600073ffffffffffffffffffffffffffffffffffffffff82169050919050565b60006200022d8262000200565b9050919050565b6200023f8162000220565b81146200024b57600080fd5b50565b6000815190506200025f8162000234565b92915050565b6000620002728262000200565b9050919050565b6000620002868262000265565b9050919050565b620002988162000279565b8114620002a457600080fd5b50565b600081519050620002b8816200028d565b92915050565b600080600060608486031215620002da57620002d9620001fb565b5b6000620002ea868287016200024e565b9350506020620002fd868287016200024e565b92505060406200031086828701620002a7565b9150509250925092565b6000819050919050565b7f4e487b7100000000000000000000000000000000000000000000000000000000600052601160045260246000fd5b600062000360826200031a565b91506200036d836200031a565b9250827fffffffffffffffffffffffffffffffffffffffffffffffffffffffffffffffff03821115620003a557620003a462000324565b5b828201905092915050565b7f4e487b7100000000000000000000000000000000000000000000000000000000600052602160045260246000fd5b620003ea8162000220565b82525050565b600060ff82169050919050565b6200040881620003f0565b82525050565b600067ffffffffffffffff82169050919050565b6200042d816200040e565b82525050565b60006060820190506200044a6000830186620003df565b620004596020830185620003fd565b62000468604083018462000422565b949350505050565b6117c780620004806000396000f3fe608060405234801561001057600080fd5b506004361061009e5760003560e01c80634194d32a116100665780634194d32a146100fd5780635a77dc46146101075780635f8d96de146101255780638d76f94014610143578063c19d93fb146101615761009e565b80630656e748146100a357806308551a53146100ad578063099a99f7146100cb5780631081b97a146100d557806312065fe0146100df575b600080fd5b6100ab61017f565b005b6100b56103ca565b6040516100c29190611010565b60405180910390f35b6100d36103f0565b005b6100dd61063b565b005b6100e7610a5c565b6040516100f49190611044565b60405180910390f35b610105610a64565b005b61010f610e4e565b60405161011c9190611010565b60405180910390f35b61012d610e74565b60405161013a9190611082565b60405180910390f35b61014b610ec2565b60405161015891906110fc565b60405180910390f35b610169610ee8565b604051610176919061118e565b60405180910390f35b610187610f2a565b73ffffffffffffffffffffffffffffffffffffffff16600260009054906101000a900473ffffffffffffffffffffffffffffffffffffffff1673ffffffffffffffffffffffffffffffffffffffff1614610216576040517f08c379a000000000000000000000000000000000000000000000000000000000815260040161020d90611206565b60405180910390fd5b61025d60006040518060200160405290816000820160009054906101000a900467ffffffffffffffff1667ffffffffffffffff1667ffffffffffffffff1681525050610f32565b61029c576040517f08c379a000000000000000000000000000000000000000000000000000000000815260040161029390611272565b60405180910390fd5b600160048111156102b0576102af611117565b5b600360149054906101000a900460ff1660048111156102d2576102d1611117565b5b14610312576040517f08c379a000000000000000000000000000000000000000000000000000000000815260040161030990611304565b60405180910390fd5b600062093a80426103239190611353565b9050610339816000610efb90919063ffffffff16565b6002600360146101000a81548160ff0219169083600481111561035f5761035e611117565b5b02179055507f6e9eb88a2b4685b02dacc5a724c248755eee555f7f388e9aadab99236cc7b3de61038d610f2a565b600360149054906101000a900460ff1660048111156103af576103ae611117565b5b836040516103bf939291906113c5565b60405180910390a150565b600260009054906101000a900473ffffffffffffffffffffffffffffffffffffffff1681565b6103f8610f2a565b73ffffffffffffffffffffffffffffffffffffffff16600260009054906101000a900473ffffffffffffffffffffffffffffffffffffffff1673ffffffffffffffffffffffffffffffffffffffff1614610487576040517f08c379a000000000000000000000000000000000000000000000000000000000815260040161047e90611206565b60405180910390fd5b6104ce60006040518060200160405290816000820160009054906101000a900467ffffffffffffffff1667ffffffffffffffff1667ffffffffffffffff1681525050610f32565b61050d576040517f08c379a000000000000000000000000000000000000000000000000000000000815260040161050490611272565b60405180910390fd5b6000600481111561052157610520611117565b5b600360149054906101000a900460ff16600481111561054357610542611117565b5b14610583576040517f08c379a000000000000000000000000000000000000000000000000000000000815260040161057a9061146e565b60405180910390fd5b60006202a300426105949190611353565b90506105aa816000610efb90919063ffffffff16565b6001600360146101000a81548160ff021916908360048111156105d0576105cf611117565b5b02179055507f6e9eb88a2b4685b02dacc5a724c248755eee555f7f388e9aadab99236cc7b3de6105fe610f2a565b600360149054906101000a900460ff1660048111156106205761061f611117565b5b83604051610630939291906113c5565b60405180910390a150565b610643610f2a565b73ffffffffffffffffffffffffffffffffffffffff16600160009054906101000a900473ffffffffffffffffffffffffffffffffffffffff1673ffffffffffffffffffffffffffffffffffffffff16146106d2576040517f08c379a00000000000000000000000000000000000000000000000000000000081526004016106c990611500565b60405180910390fd5b61071960006040518060200160405290816000820160009054906101000a900467ffffffffffffffff1667ffffffffffffffff1667ffffffffffffffff1681525050610f32565b610758576040517f08c379a000000000000000000000000000000000000000000000000000000000815260040161074f90611272565b60405180910390fd5b6002600481111561076c5761076b611117565b5b600360149054906101000a900460ff16600481111561078e5761078d611117565b5b146107ce576040517f08c379a00000000000000000000000000000000000000000000000000000000081526004016107c590611592565b60405180910390fd5b6107d86000610f4c565b600360009054906101000a900473ffffffffffffffffffffffffffffffffffffffff1673ffffffffffffffffffffffffffffffffffffffff1663230b9da36040518163ffffffff1660e01b8152600401602060405180830381865afa158015610845573d6000803e3d6000fd5b505050506040513d601f19601f820116820180604052508101906108699190611607565b73ffffffffffffffffffffffffffffffffffffffff1663c2601eb9600360009054906101000a900473ffffffffffffffffffffffffffffffffffffffff1673ffffffffffffffffffffffffffffffffffffffff166363fbab486040518163ffffffff1660e01b8152600401602060405180830381865afa1580156108f1573d6000803e3d6000fd5b505050506040513d601f19601f820116820180604052508101906109159190611660565b6040518263ffffffff1660e01b81526004016109319190611044565b600060405180830381600087803b15801561094b57600080fd5b505af115801561095f573d6000803e3d6000fd5b50505050600260009054906101000a900473ffffffffffffffffffffffffffffffffffffffff1673ffffffffffffffffffffffffffffffffffffffff166108fc479081150290604051600060405180830381858888f193505050501580156109cb573d6000803e3d6000fd5b5060038060146101000a81548160ff021916908360048111156109f1576109f0611117565b5b02179055507f6e9eb88a2b4685b02dacc5a724c248755eee555f7f388e9aadab99236cc7b3de610a1f610f2a565b600360149054906101000a900460ff166004811115610a4157610a40611117565b5b6000604051610a52939291906116c8565b60405180910390a1565b600047905090565b610a6c610f2a565b73ffffffffffffffffffffffffffffffffffffffff16600160009054906101000a900473ffffffffffffffffffffffffffffffffffffffff1673ffffffffffffffffffffffffffffffffffffffff1614610afb576040517f08c379a0000000000000000000000000000000000000000000000000000000008152600401610af290611500565b60405180910390fd5b60006004811115610b0f57610b0e611117565b5b600360149054906101000a900460ff166004811115610b3157610b30611117565b5b1480610b805750610b7f60006040518060200160405290816000820160009054906101000a900467ffffffffffffffff1667ffffffffffffffff1667ffffffffffffffff1681525050610f7b565b5b610bbf576040517f08c379a0000000000000000000000000000000000000000000000000000000008152600401610bb690611771565b60405180910390fd5b610bc96000610f4c565b6004600360146101000a81548160ff02191690836004811115610bef57610bee611117565b5b0217905550600360009054906101000a900473ffffffffffffffffffffffffffffffffffffffff1673ffffffffffffffffffffffffffffffffffffffff1663230b9da36040518163ffffffff1660e01b8152600401602060405180830381865afa158015610c61573d6000803e3d6000fd5b505050506040513d601f19601f82011682018060405250810190610c859190611607565b73ffffffffffffffffffffffffffffffffffffffff1663574bd60c600360009054906101000a900473ffffffffffffffffffffffffffffffffffffffff1673ffffffffffffffffffffffffffffffffffffffff166363fbab486040518163ffffffff1660e01b8152600401602060405180830381865afa158015610d0d573d6000803e3d6000fd5b505050506040513d601f19601f82011682018060405250810190610d319190611660565b6040518263ffffffff1660e01b8152600401610d4d9190611044565b600060405180830381600087803b158015610d6757600080fd5b505af1158015610d7b573d6000803e3d6000fd5b50505050600160009054906101000a900473ffffffffffffffffffffffffffffffffffffffff1673ffffffffffffffffffffffffffffffffffffffff166108fc479081150290604051600060405180830381858888f19350505050158015610de7573d6000803e3d6000fd5b507f6e9eb88a2b4685b02dacc5a724c248755eee555f7f388e9aadab99236cc7b3de610e11610f2a565b600360149054906101000a900460ff166004811115610e3357610e32611117565b5b6000604051610e44939291906116c8565b60405180910390a1565b600160009054906101000a900473ffffffffffffffffffffffffffffffffffffffff1681565b6000610ebd60006040518060200160405290816000820160009054906101000a900467ffffffffffffffff1667ffffffffffffffff1667ffffffffffffffff1681525050610fa7565b905090565b600360009054906101000a900473ffffffffffffffffffffffffffffffffffffffff1681565b600360149054906101000a900460ff1681565b808260000160006101000a81548167ffffffffffffffff021916908367ffffffffffffffff1602179055505050565b600033905090565b600042826000015167ffffffffffffffff16119050919050565b60008160000160006101000a81548167ffffffffffffffff021916908367ffffffffffffffff16021790555050565b6000610f8682610fb5565b8015610fa0575042826000015167ffffffffffffffff1611155b9050919050565b600081600001519050919050565b600080826000015167ffffffffffffffff16119050919050565b600073ffffffffffffffffffffffffffffffffffffffff82169050919050565b6000610ffa82610fcf565b9050919050565b61100a81610fef565b82525050565b60006020820190506110256000830184611001565b92915050565b6000819050919050565b61103e8161102b565b82525050565b60006020820190506110596000830184611035565b92915050565b600067ffffffffffffffff82169050919050565b61107c8161105f565b82525050565b60006020820190506110976000830184611073565b92915050565b6000819050919050565b60006110c26110bd6110b884610fcf565b61109d565b610fcf565b9050919050565b60006110d4826110a7565b9050919050565b60006110e6826110c9565b9050919050565b6110f6816110db565b82525050565b600060208201905061111160008301846110ed565b92915050565b7f4e487b7100000000000000000000000000000000000000000000000000000000600052602160045260246000fd5b6005811061115757611156611117565b5b50565b600081905061116882611146565b919050565b60006111788261115a565b9050919050565b6111888161116d565b82525050565b60006020820190506111a3600083018461117f565b92915050565b600082825260208201905092915050565b7f4f726465723a2063616c6c6572206973206e6f74207468652073656c6c657200600082015250565b60006111f0601f836111a9565b91506111fb826111ba565b602082019050919050565b6000602082019050818103600083015261121f816111e3565b9050919050565b7f4f726465723a207472616e73616374696f6e2069732065787069726564000000600082015250565b600061125c601d836111a9565b915061126782611226565b602082019050919050565b6000602082019050818103600083015261128b8161124f565b9050919050565b7f4f726465723a207374617465206d7573742062652022436f6e6669726d65642260008201527f20746f2074726967676572207368697070696e67000000000000000000000000602082015250565b60006112ee6034836111a9565b91506112f982611292565b604082019050919050565b6000602082019050818103600083015261131d816112e1565b9050919050565b7f4e487b7100000000000000000000000000000000000000000000000000000000600052601160045260246000fd5b600061135e8261102b565b91506113698361102b565b9250827fffffffffffffffffffffffffffffffffffffffffffffffffffffffffffffffff0382111561139e5761139d611324565b5b828201905092915050565b600060ff82169050919050565b6113bf816113a9565b82525050565b60006060820190506113da6000830186611001565b6113e760208301856113b6565b6113f46040830184611073565b949350505050565b7f4f726465723a207374617465206d7573742062652022506c616365642220746f60008201527f207472696767657220636f6e6669726d00000000000000000000000000000000602082015250565b60006114586030836111a9565b9150611463826113fc565b604082019050919050565b600060208201905081810360008301526114878161144b565b9050919050565b7f4f726465723a2063616c6c6572206973206e6f7420746865207075726368617360008201527f6572000000000000000000000000000000000000000000000000000000000000602082015250565b60006114ea6022836111a9565b91506114f58261148e565b604082019050919050565b60006020820190508181036000830152611519816114dd565b9050919050565b7f4f726465723a207374617465206d75737420626520225368697070696e67222060008201527f746f205265636569766564000000000000000000000000000000000000000000602082015250565b600061157c602b836111a9565b915061158782611520565b604082019050919050565b600060208201905081810360008301526115ab8161156f565b9050919050565b600080fd5b60006115c282610fcf565b9050919050565b60006115d4826115b7565b9050919050565b6115e4816115c9565b81146115ef57600080fd5b50565b600081519050611601816115db565b92915050565b60006020828403121561161d5761161c6115b2565b5b600061162b848285016115f2565b91505092915050565b61163d8161102b565b811461164857600080fd5b50565b60008151905061165a81611634565b92915050565b600060208284031215611676576116756115b2565b5b60006116848482850161164b565b91505092915050565b6000819050919050565b60006116b26116ad6116a88461168d565b61109d565b61105f565b9050919050565b6116c281611697565b82525050565b60006060820190506116dd6000830186611001565b6116ea60208301856113b6565b6116f760408301846116b9565b949350505050565b7f4f726465723a207472616e73616374696f6e2069732070656e64696e67206f7260008201527f2064656c6976657265642c2063616e206e6f742063616e63656c206e6f770000602082015250565b600061175b603e836111a9565b9150611766826116ff565b604082019050919050565b6000602082019050818103600083015261178a8161174e565b905091905056fea26469706673582212209f27abed97bbac1834abdbb6ff3060a9a1666bf14ed0fd1d86bbe572f479828c64736f6c634300080b0033a264697066735822122063eaaf52d6273b422a5f645a0f7f99c437a06ca5e31f96189845e1b6bd14128b64736f6c634300080b0033",
  "immutableReferences": {},
  "source": "// SPDX-License-Identifier: MIT\r\npragma solidity ^0.8.11;\r\n\r\nimport \"./Ownable.sol\";\r\nimport \"./Item.sol\";\r\nimport \"./Order.sol\";\r\nimport \"./Counters.sol\";\r\n\r\ncontract ItemManager is Ownable {\r\n    using Counters for Counters.Counter;\r\n\r\n    Counters.Counter private itemIndex;\r\n    enum ItemState {\r\n        Created,\r\n        Sold,\r\n        Delivered,\r\n        Cancelled\r\n    }\r\n    struct S_Item {\r\n        Item _item;\r\n        Order _order;\r\n        ItemManager.ItemState _state;\r\n    }\r\n    mapping(uint256 => S_Item) public items;\r\n\r\n    event ItemStateChanged(uint256 indexed itemIndex, uint8 state);\r\n\r\n    modifier itemFound(uint256 _itemIndex) {\r\n        require(\r\n            _itemIndex < itemIndex.current(),\r\n            \"ItemManager: item not found!\"\r\n        );\r\n        _;\r\n    }\r\n\r\n    modifier onlyItemOwner(uint256 _itemIndex) {\r\n        require(\r\n            items[_itemIndex]._item.owner() == _msgSender(),\r\n            \"ItemManager: caller is not the Item owner\"\r\n        );\r\n        _;\r\n    }\r\n\r\n    // 0x3031303230333034000000000000000000000000000000000000000000000000\r\n    // 0x4d741b6f1eb29cb2a9b9911c82f56fa8d73b04959d3d9d222895df6c0b28aa15\r\n    function createItem(\r\n        string memory _name,\r\n        string memory _specifications,\r\n        string memory _rawDataUrl,\r\n        bytes32 _rawDataHash,\r\n        uint256 _price\r\n    ) public {\r\n        uint256 curentItemIndex = itemIndex.current();\r\n        Item item = new Item(\r\n            this,\r\n            _msgSender(),\r\n            _name,\r\n            _specifications,\r\n            _rawDataUrl,\r\n            _rawDataHash,\r\n            _price,\r\n            curentItemIndex\r\n        );\r\n        S_Item storage s_item = items[curentItemIndex];\r\n        s_item._item = item;\r\n        s_item._state = ItemState.Created;\r\n        emit ItemStateChanged(curentItemIndex, uint8(s_item._state));\r\n        itemIndex.increment();\r\n    }\r\n\r\n    function triggerDelivered(uint256 _itemIndex) public itemFound(_itemIndex) {\r\n        require(\r\n            items[_itemIndex]._state == ItemState.Sold,\r\n            \"ItemManager: this item has not been purchased\"\r\n        );\r\n        require(\r\n            address(items[_itemIndex]._order) == _msgSender(),\r\n            \"ItemManager: this function must be call from Order contract\"\r\n        );\r\n        items[_itemIndex]._item.transferOwnership(items[_itemIndex]._order.purchaser(), address(items[_itemIndex]._order));\r\n        items[_itemIndex]._state = ItemState.Delivered;\r\n        emit ItemStateChanged(_itemIndex, uint8(items[_itemIndex]._state));\r\n    }\r\n\r\n    function triggerPayment(\r\n        uint256 _itemIndex,\r\n        address _purchaser,\r\n        address _owner\r\n    ) public payable itemFound(_itemIndex) {\r\n        S_Item storage s_item = items[_itemIndex];\r\n        require(\r\n            _msgSender() == address(s_item._item),\r\n            \"ItemManager: this function must be call from Item contract\"\r\n        );\r\n        require(\r\n            s_item._state == ItemState.Created,\r\n            \"ItemManager: this item is further on chain\"\r\n        );\r\n        Order order = new Order{value: msg.value}(\r\n            _purchaser,\r\n            _owner,\r\n            s_item._item\r\n        );\r\n        s_item._order = order;\r\n        s_item._state = ItemState.Sold;\r\n        emit ItemStateChanged(_itemIndex, uint8(s_item._state));\r\n    }\r\n\r\n    function triggerResale(uint256 _itemIndex, uint256 _price)\r\n        public\r\n        itemFound(_itemIndex)\r\n        onlyItemOwner(_itemIndex)\r\n    {\r\n        S_Item storage s_item = items[_itemIndex];\r\n        require(\r\n            s_item._state == ItemState.Delivered || s_item._state == ItemState.Cancelled,\r\n            'ItemManager: This item state must be \"Delivered\" or \"Cancelled\" to make for resale!'\r\n        );\r\n        s_item._item.changePrice(_price);\r\n        s_item._state = ItemState.Created;\r\n        emit ItemStateChanged(_itemIndex, uint8(s_item._state));\r\n    }\r\n\r\n    function triggerCancel(uint256 _itemIndex)\r\n        public\r\n        itemFound(_itemIndex)\r\n    {\r\n        S_Item storage s_item = items[_itemIndex];\r\n        require(\r\n            address(items[_itemIndex]._order) == _msgSender(),\r\n            \"ItemManager: this function must be call from Order contract\"\r\n        );\r\n        require(\r\n            s_item._state == ItemState.Sold,\r\n            \"ItemManager: this item is further on chain\"\r\n        );\r\n        s_item._item.changePrice(0);\r\n        s_item._state = ItemState.Cancelled;\r\n        emit ItemStateChanged(_itemIndex, uint8(s_item._state));\r\n    }\r\n\r\n    function currentItemIndex() public view returns (uint256) {\r\n        return itemIndex.current();\r\n    }\r\n\r\n    receive() external payable {}\r\n\r\n    fallback() external payable {}\r\n}\r\n",
  "sourcePath": "D:\\Office\\DAPP\\Blockchain1Laps\\blockchain01\\contracts\\ItemManager.sol",
  "compiler": {
    "name": "solc",
    "version": "0.8.11+commit.d7f03943.Emscripten.clang"
  },
  "schemaVersion": "3.4.3",
  "updatedAt": "2022-02-19T10:02:28.302Z",
  "networkType": "ethereum",
  "devdoc": {
    "kind": "dev",
    "methods": {
      "owner()": {
        "details": "Returns the address of the current owner."
      },
      "transferOwnership(address)": {
        "details": "Transfers ownership of the contract to a new account (`newOwner`). Can only be called by the current owner."
      }
    },
    "version": 1
  },
  "userdoc": {
    "kind": "user",
    "methods": {},
    "version": 1
  }
}