{
  "contractName": "ItemManager",
  "abi": [
    {
      "anonymous": false,
      "inputs": [
        {
          "indexed": true,
          "internalType": "uint256",
          "name": "itemIndex",
          "type": "uint256"
        },
        {
          "indexed": false,
          "internalType": "uint8",
          "name": "state",
          "type": "uint8"
        }
      ],
      "name": "ItemStateChanged",
      "type": "event"
    },
    {
      "anonymous": false,
      "inputs": [
        {
          "indexed": true,
          "internalType": "address",
          "name": "previousOwner",
          "type": "address"
        },
        {
          "indexed": true,
          "internalType": "address",
          "name": "newOwner",
          "type": "address"
        }
      ],
      "name": "OwnershipTransferred",
      "type": "event"
    },
    {
      "stateMutability": "payable",
      "type": "fallback",
      "payable": true
    },
    {
      "inputs": [
        {
          "internalType": "uint256",
          "name": "",
          "type": "uint256"
        }
      ],
      "name": "items",
      "outputs": [
        {
          "internalType": "contract Item",
          "name": "_item",
          "type": "address"
        },
        {
          "internalType": "contract Order",
          "name": "_order",
          "type": "address"
        },
        {
          "internalType": "enum ItemManager.ItemState",
          "name": "_state",
          "type": "uint8"
        }
      ],
      "stateMutability": "view",
      "type": "function",
      "constant": true
    },
    {
      "inputs": [],
      "name": "owner",
      "outputs": [
        {
          "internalType": "address",
          "name": "",
          "type": "address"
        }
      ],
      "stateMutability": "view",
      "type": "function",
      "constant": true
    },
    {
      "inputs": [
        {
          "internalType": "address",
          "name": "newOwner",
          "type": "address"
        }
      ],
      "name": "transferOwnership",
      "outputs": [],
      "stateMutability": "nonpayable",
      "type": "function"
    },
    {
      "stateMutability": "payable",
      "type": "receive",
      "payable": true
    },
    {
      "inputs": [
        {
          "internalType": "string",
          "name": "_name",
          "type": "string"
        },
        {
          "internalType": "string",
          "name": "_specifications",
          "type": "string"
        },
        {
          "internalType": "bytes32",
          "name": "_rawDataHash",
          "type": "bytes32"
        },
        {
          "internalType": "uint256",
          "name": "_price",
          "type": "uint256"
        }
      ],
      "name": "createItem",
      "outputs": [],
      "stateMutability": "nonpayable",
      "type": "function"
    },
    {
      "inputs": [
        {
          "internalType": "uint256",
          "name": "_itemIndex",
          "type": "uint256"
        }
      ],
      "name": "triggerDelivered",
      "outputs": [],
      "stateMutability": "nonpayable",
      "type": "function"
    },
    {
      "inputs": [
        {
          "internalType": "uint256",
          "name": "_itemIndex",
          "type": "uint256"
        },
        {
          "internalType": "address",
          "name": "_purchaser",
          "type": "address"
        },
        {
          "internalType": "address",
          "name": "_owner",
          "type": "address"
        }
      ],
      "name": "triggerPayment",
      "outputs": [],
      "stateMutability": "payable",
      "type": "function",
      "payable": true
    },
    {
      "inputs": [
        {
          "internalType": "uint256",
          "name": "_itemIndex",
          "type": "uint256"
        },
        {
          "internalType": "uint256",
          "name": "_price",
          "type": "uint256"
        }
      ],
      "name": "triggerResale",
      "outputs": [],
      "stateMutability": "nonpayable",
      "type": "function"
    },
    {
      "inputs": [
        {
          "internalType": "uint256",
          "name": "_itemIndex",
          "type": "uint256"
        }
      ],
      "name": "triggerCancel",
      "outputs": [],
      "stateMutability": "nonpayable",
      "type": "function"
    },
    {
      "inputs": [],
      "name": "currentItemIndex",
      "outputs": [
        {
          "internalType": "uint256",
          "name": "",
          "type": "uint256"
        }
      ],
      "stateMutability": "view",
      "type": "function",
      "constant": true
    }
  ],
  "bytecode": "0x608060405234801561001057600080fd5b5061002d61002261003260201b60201c565b61003a60201b60201c565b6100fe565b600033905090565b60008060009054906101000a900473ffffffffffffffffffffffffffffffffffffffff169050816000806101000a81548173ffffffffffffffffffffffffffffffffffffffff021916908373ffffffffffffffffffffffffffffffffffffffff1602179055508173ffffffffffffffffffffffffffffffffffffffff168173ffffffffffffffffffffffffffffffffffffffff167f8be0079c531659141344cd1fd0a4f28419497f9722a3daafe3b4186f6b6457e060405160405180910390a35050565b615299806200010e6000396000f3fe608060405260043610620000975760003560e01c8063bfb231d21162000061578063bfb231d2146200015d578063c2601eb914620001a3578063d2a9da5914620001d1578063d33a0cf414620001ff578063f2fde38b146200021f576200009f565b8063157bb72314620000a1578063574bd60c14620000cf578063674a04e214620000fd5780638da5cb5b146200012d576200009f565b366200009f57005b005b348015620000ae57600080fd5b50620000cd6004803603810190620000c7919062001532565b6200024d565b005b348015620000dc57600080fd5b50620000fb6004803603810190620000f59190620015e2565b620003ae565b005b3480156200010a57600080fd5b506200011562000670565b60405162000124919062001625565b60405180910390f35b3480156200013a57600080fd5b506200014562000683565b60405162000154919062001687565b60405180910390f35b3480156200016a57600080fd5b50620001896004803603810190620001839190620015e2565b620006ac565b6040516200019a93929190620017c8565b60405180910390f35b348015620001b057600080fd5b50620001cf6004803603810190620001c99190620015e2565b62000723565b005b348015620001de57600080fd5b50620001fd6004803603810190620001f7919062001805565b62000af2565b005b6200021d60048036038101906200021791906200187d565b62000e6d565b005b3480156200022c57600080fd5b506200024b6004803603810190620002459190620018d9565b62001136565b005b60006200025b60016200123a565b90506000306200026a62001248565b87878787876040516200027d906200132a565b6200028f9796959493929190620019d4565b604051809103906000f080158015620002ac573d6000803e3d6000fd5b5090506000600260008481526020019081526020016000209050818160000160006101000a81548173ffffffffffffffffffffffffffffffffffffffff021916908373ffffffffffffffffffffffffffffffffffffffff16021790555060008160010160146101000a81548160ff0219169083600381111562000334576200033362001748565b5b0217905550827f3031643476ad6f4156cd7d9fedda4a646bdfb198a9084c479369e26451df57ed8260010160149054906101000a900460ff16600381111562000382576200038162001748565b5b60405162000391919062001a7d565b60405180910390a2620003a5600162001250565b50505050505050565b80620003bb60016200123a565b8110620003ff576040517f08c379a0000000000000000000000000000000000000000000000000000000008152600401620003f69062001aea565b60405180910390fd5b60006002600084815260200190815260200160002090506200042062001248565b73ffffffffffffffffffffffffffffffffffffffff166002600085815260200190815260200160002060010160009054906101000a900473ffffffffffffffffffffffffffffffffffffffff1673ffffffffffffffffffffffffffffffffffffffff1614620004c6576040517f08c379a0000000000000000000000000000000000000000000000000000000008152600401620004bd9062001b82565b60405180910390fd5b60016003811115620004dd57620004dc62001748565b5b8160010160149054906101000a900460ff16600381111562000504576200050362001748565b5b1462000547576040517f08c379a00000000000000000000000000000000000000000000000000000000081526004016200053e9062001c1a565b60405180910390fd5b8060000160009054906101000a900473ffffffffffffffffffffffffffffffffffffffff1673ffffffffffffffffffffffffffffffffffffffff1663a2b40d1960006040518263ffffffff1660e01b8152600401620005a7919062001c7f565b600060405180830381600087803b158015620005c257600080fd5b505af1158015620005d7573d6000803e3d6000fd5b5050505060038160010160146101000a81548160ff0219169083600381111562000606576200060562001748565b5b0217905550827f3031643476ad6f4156cd7d9fedda4a646bdfb198a9084c479369e26451df57ed8260010160149054906101000a900460ff16600381111562000654576200065362001748565b5b60405162000663919062001a7d565b60405180910390a2505050565b60006200067e60016200123a565b905090565b60008060009054906101000a900473ffffffffffffffffffffffffffffffffffffffff16905090565b60026020528060005260406000206000915090508060000160009054906101000a900473ffffffffffffffffffffffffffffffffffffffff16908060010160009054906101000a900473ffffffffffffffffffffffffffffffffffffffff16908060010160149054906101000a900460ff16905083565b806200073060016200123a565b811062000774576040517f08c379a00000000000000000000000000000000000000000000000000000000081526004016200076b9062001aea565b60405180910390fd5b600160038111156200078b576200078a62001748565b5b6002600084815260200190815260200160002060010160149054906101000a900460ff166003811115620007c457620007c362001748565b5b1462000807576040517f08c379a0000000000000000000000000000000000000000000000000000000008152600401620007fe9062001d12565b60405180910390fd5b6200081162001248565b73ffffffffffffffffffffffffffffffffffffffff166002600084815260200190815260200160002060010160009054906101000a900473ffffffffffffffffffffffffffffffffffffffff1673ffffffffffffffffffffffffffffffffffffffff1614620008b7576040517f08c379a0000000000000000000000000000000000000000000000000000000008152600401620008ae9062001b82565b60405180910390fd5b6002600083815260200190815260200160002060000160009054906101000a900473ffffffffffffffffffffffffffffffffffffffff1673ffffffffffffffffffffffffffffffffffffffff16636d4354216002600085815260200190815260200160002060010160009054906101000a900473ffffffffffffffffffffffffffffffffffffffff1673ffffffffffffffffffffffffffffffffffffffff16635a77dc466040518163ffffffff1660e01b8152600401602060405180830381865afa1580156200098b573d6000803e3d6000fd5b505050506040513d601f19601f82011682018060405250810190620009b1919062001d4b565b6002600086815260200190815260200160002060010160009054906101000a900473ffffffffffffffffffffffffffffffffffffffff166040518363ffffffff1660e01b815260040162000a0792919062001d7d565b600060405180830381600087803b15801562000a2257600080fd5b505af115801562000a37573d6000803e3d6000fd5b50505050600280600084815260200190815260200160002060010160146101000a81548160ff0219169083600381111562000a775762000a7662001748565b5b0217905550817f3031643476ad6f4156cd7d9fedda4a646bdfb198a9084c479369e26451df57ed6002600085815260200190815260200160002060010160149054906101000a900460ff16600381111562000ad75762000ad662001748565b5b60405162000ae6919062001a7d565b60405180910390a25050565b8162000aff60016200123a565b811062000b43576040517f08c379a000000000000000000000000000000000000000000000000000000000815260040162000b3a9062001aea565b60405180910390fd5b8262000b4e62001248565b73ffffffffffffffffffffffffffffffffffffffff166002600083815260200190815260200160002060000160009054906101000a900473ffffffffffffffffffffffffffffffffffffffff1673ffffffffffffffffffffffffffffffffffffffff16638da5cb5b6040518163ffffffff1660e01b8152600401602060405180830381865afa15801562000be6573d6000803e3d6000fd5b505050506040513d601f19601f8201168201806040525081019062000c0c919062001d4b565b73ffffffffffffffffffffffffffffffffffffffff161462000c65576040517f08c379a000000000000000000000000000000000000000000000000000000000815260040162000c5c9062001e20565b60405180910390fd5b60006002600086815260200190815260200160002090506002600381111562000c935762000c9262001748565b5b8160010160149054906101000a900460ff16600381111562000cba5762000cb962001748565b5b148062000d01575060038081111562000cd85762000cd762001748565b5b8160010160149054906101000a900460ff16600381111562000cff5762000cfe62001748565b5b145b62000d43576040517f08c379a000000000000000000000000000000000000000000000000000000000815260040162000d3a9062001ede565b60405180910390fd5b8060000160009054906101000a900473ffffffffffffffffffffffffffffffffffffffff1673ffffffffffffffffffffffffffffffffffffffff1663a2b40d19856040518263ffffffff1660e01b815260040162000da2919062001625565b600060405180830381600087803b15801562000dbd57600080fd5b505af115801562000dd2573d6000803e3d6000fd5b5050505060008160010160146101000a81548160ff0219169083600381111562000e015762000e0062001748565b5b0217905550847f3031643476ad6f4156cd7d9fedda4a646bdfb198a9084c479369e26451df57ed8260010160149054906101000a900460ff16600381111562000e4f5762000e4e62001748565b5b60405162000e5e919062001a7d565b60405180910390a25050505050565b8262000e7a60016200123a565b811062000ebe576040517f08c379a000000000000000000000000000000000000000000000000000000000815260040162000eb59062001aea565b60405180910390fd5b60006002600086815260200190815260200160002090508060000160009054906101000a900473ffffffffffffffffffffffffffffffffffffffff1673ffffffffffffffffffffffffffffffffffffffff1662000f1a62001248565b73ffffffffffffffffffffffffffffffffffffffff161462000f73576040517f08c379a000000000000000000000000000000000000000000000000000000000815260040162000f6a9062001f76565b60405180910390fd5b6000600381111562000f8a5762000f8962001748565b5b8160010160149054906101000a900460ff16600381111562000fb15762000fb062001748565b5b1462000ff4576040517f08c379a000000000000000000000000000000000000000000000000000000000815260040162000feb9062001c1a565b60405180910390fd5b60003485858460000160009054906101000a900473ffffffffffffffffffffffffffffffffffffffff166040516200102c9062001338565b6200103a9392919062001f98565b6040518091039082f090508015801562001058573d6000803e3d6000fd5b509050808260010160006101000a81548173ffffffffffffffffffffffffffffffffffffffff021916908373ffffffffffffffffffffffffffffffffffffffff16021790555060018260010160146101000a81548160ff02191690836003811115620010c957620010c862001748565b5b0217905550857f3031643476ad6f4156cd7d9fedda4a646bdfb198a9084c479369e26451df57ed8360010160149054906101000a900460ff16600381111562001117576200111662001748565b5b60405162001126919062001a7d565b60405180910390a2505050505050565b6200114062001248565b73ffffffffffffffffffffffffffffffffffffffff166200116062000683565b73ffffffffffffffffffffffffffffffffffffffff1614620011b9576040517f08c379a0000000000000000000000000000000000000000000000000000000008152600401620011b09062002025565b60405180910390fd5b600073ffffffffffffffffffffffffffffffffffffffff168173ffffffffffffffffffffffffffffffffffffffff1614156200122c576040517f08c379a00000000000000000000000000000000000000000000000000000000081526004016200122390620020bd565b60405180910390fd5b620012378162001266565b50565b600081600001549050919050565b600033905090565b6001816000016000828254019250508190555050565b60008060009054906101000a900473ffffffffffffffffffffffffffffffffffffffff169050816000806101000a81548173ffffffffffffffffffffffffffffffffffffffff021916908373ffffffffffffffffffffffffffffffffffffffff1602179055508173ffffffffffffffffffffffffffffffffffffffff168173ffffffffffffffffffffffffffffffffffffffff167f8be0079c531659141344cd1fd0a4f28419497f9722a3daafe3b4186f6b6457e060405160405180910390a35050565b61153d80620020e083390190565b611c47806200361d83390190565b6000604051905090565b600080fd5b600080fd5b600080fd5b600080fd5b6000601f19601f8301169050919050565b7f4e487b7100000000000000000000000000000000000000000000000000000000600052604160045260246000fd5b620013af8262001364565b810181811067ffffffffffffffff82111715620013d157620013d062001375565b5b80604052505050565b6000620013e662001346565b9050620013f48282620013a4565b919050565b600067ffffffffffffffff82111562001417576200141662001375565b5b620014228262001364565b9050602081019050919050565b82818337600083830152505050565b6000620014556200144f84620013f9565b620013da565b9050828152602081018484840111156200147457620014736200135f565b5b620014818482856200142f565b509392505050565b600082601f830112620014a157620014a06200135a565b5b8135620014b38482602086016200143e565b91505092915050565b6000819050919050565b620014d181620014bc565b8114620014dd57600080fd5b50565b600081359050620014f181620014c6565b92915050565b6000819050919050565b6200150c81620014f7565b81146200151857600080fd5b50565b6000813590506200152c8162001501565b92915050565b600080600080608085870312156200154f576200154e62001350565b5b600085013567ffffffffffffffff81111562001570576200156f62001355565b5b6200157e8782880162001489565b945050602085013567ffffffffffffffff811115620015a257620015a162001355565b5b620015b08782880162001489565b9350506040620015c387828801620014e0565b9250506060620015d6878288016200151b565b91505092959194509250565b600060208284031215620015fb57620015fa62001350565b5b60006200160b848285016200151b565b91505092915050565b6200161f81620014f7565b82525050565b60006020820190506200163c600083018462001614565b92915050565b600073ffffffffffffffffffffffffffffffffffffffff82169050919050565b60006200166f8262001642565b9050919050565b620016818162001662565b82525050565b60006020820190506200169e600083018462001676565b92915050565b6000819050919050565b6000620016cf620016c9620016c38462001642565b620016a4565b62001642565b9050919050565b6000620016e382620016ae565b9050919050565b6000620016f782620016d6565b9050919050565b6200170981620016ea565b82525050565b60006200171c82620016ae565b9050919050565b600062001730826200170f565b9050919050565b620017428162001723565b82525050565b7f4e487b7100000000000000000000000000000000000000000000000000000000600052602160045260246000fd5b600481106200178b576200178a62001748565b5b50565b60008190506200179e8262001777565b919050565b6000620017b0826200178e565b9050919050565b620017c281620017a3565b82525050565b6000606082019050620017df6000830186620016fe565b620017ee602083018562001737565b620017fd6040830184620017b7565b949350505050565b600080604083850312156200181f576200181e62001350565b5b60006200182f858286016200151b565b925050602062001842858286016200151b565b9150509250929050565b620018578162001662565b81146200186357600080fd5b50565b60008135905062001877816200184c565b92915050565b60008060006060848603121562001899576200189862001350565b5b6000620018a9868287016200151b565b9350506020620018bc8682870162001866565b9250506040620018cf8682870162001866565b9150509250925092565b600060208284031215620018f257620018f162001350565b5b6000620019028482850162001866565b91505092915050565b60006200191882620016d6565b9050919050565b6200192a816200190b565b82525050565b600081519050919050565b600082825260208201905092915050565b60005b838110156200196c5780820151818401526020810190506200194f565b838111156200197c576000848401525b50505050565b60006200198f8262001930565b6200199b81856200193b565b9350620019ad8185602086016200194c565b620019b88162001364565b840191505092915050565b620019ce81620014bc565b82525050565b600060e082019050620019eb600083018a6200191f565b620019fa602083018962001676565b818103604083015262001a0e818862001982565b9050818103606083015262001a24818762001982565b905062001a356080830186620019c3565b62001a4460a083018562001614565b62001a5360c083018462001614565b98975050505050505050565b600060ff82169050919050565b62001a778162001a5f565b82525050565b600060208201905062001a94600083018462001a6c565b92915050565b7f4974656d4d616e616765723a206974656d206e6f7420666f756e642100000000600082015250565b600062001ad2601c836200193b565b915062001adf8262001a9a565b602082019050919050565b6000602082019050818103600083015262001b058162001ac3565b9050919050565b7f4974656d4d616e616765723a20746869732066756e6374696f6e206d7573742060008201527f62652063616c6c2066726f6d204f7264657220636f6e74726163740000000000602082015250565b600062001b6a603b836200193b565b915062001b778262001b0c565b604082019050919050565b6000602082019050818103600083015262001b9d8162001b5b565b9050919050565b7f4974656d4d616e616765723a2074686973206974656d2069732066757274686560008201527f72206f6e20636861696e00000000000000000000000000000000000000000000602082015250565b600062001c02602a836200193b565b915062001c0f8262001ba4565b604082019050919050565b6000602082019050818103600083015262001c358162001bf3565b9050919050565b6000819050919050565b600062001c6762001c6162001c5b8462001c3c565b620016a4565b620014f7565b9050919050565b62001c798162001c46565b82525050565b600060208201905062001c96600083018462001c6e565b92915050565b7f4974656d4d616e616765723a2074686973206974656d20686173206e6f74206260008201527f65656e2070757263686173656400000000000000000000000000000000000000602082015250565b600062001cfa602d836200193b565b915062001d078262001c9c565b604082019050919050565b6000602082019050818103600083015262001d2d8162001ceb565b9050919050565b60008151905062001d45816200184c565b92915050565b60006020828403121562001d645762001d6362001350565b5b600062001d748482850162001d34565b91505092915050565b600060408201905062001d94600083018562001676565b62001da3602083018462001676565b9392505050565b7f4974656d4d616e616765723a2063616c6c6572206973206e6f7420746865204960008201527f74656d206f776e65720000000000000000000000000000000000000000000000602082015250565b600062001e086029836200193b565b915062001e158262001daa565b604082019050919050565b6000602082019050818103600083015262001e3b8162001df9565b9050919050565b7f4974656d4d616e616765723a2054686973206974656d207374617465206d757360008201527f74206265202244656c69766572656422206f72202243616e63656c6c6564222060208201527f746f206d616b6520666f7220726573616c652100000000000000000000000000604082015250565b600062001ec66053836200193b565b915062001ed38262001e42565b606082019050919050565b6000602082019050818103600083015262001ef98162001eb7565b9050919050565b7f4974656d4d616e616765723a20746869732066756e6374696f6e206d7573742060008201527f62652063616c6c2066726f6d204974656d20636f6e7472616374000000000000602082015250565b600062001f5e603a836200193b565b915062001f6b8262001f00565b604082019050919050565b6000602082019050818103600083015262001f918162001f4f565b9050919050565b600060608201905062001faf600083018662001676565b62001fbe602083018562001676565b62001fcd6040830184620016fe565b949350505050565b7f4f776e61626c653a2063616c6c6572206973206e6f7420746865206f776e6572600082015250565b60006200200d6020836200193b565b91506200201a8262001fd5565b602082019050919050565b60006020820190508181036000830152620020408162001ffe565b9050919050565b7f4f776e61626c653a206e6577206f776e657220697320746865207a65726f206160008201527f6464726573730000000000000000000000000000000000000000000000000000602082015250565b6000620020a56026836200193b565b9150620020b28262002047565b604082019050919050565b60006020820190508181036000830152620020d88162002096565b905091905056fe60806040523480156200001157600080fd5b506040516200153d3803806200153d83398181016040528101906200003791906200048d565b866000806101000a81548173ffffffffffffffffffffffffffffffffffffffff021916908373ffffffffffffffffffffffffffffffffffffffff16021790555085600160006101000a81548173ffffffffffffffffffffffffffffffffffffffff021916908373ffffffffffffffffffffffffffffffffffffffff1602179055508460039080519060200190620000d09291906200010c565b508360049080519060200190620000e99291906200010c565b5082600281905550816006819055508060058190555050505050505050620005e3565b8280546200011a90620005ad565b90600052602060002090601f0160209004810192826200013e57600085556200018a565b82601f106200015957805160ff19168380011785556200018a565b828001600101855582156200018a579182015b82811115620001895782518255916020019190600101906200016c565b5b5090506200019991906200019d565b5090565b5b80821115620001b85760008160009055506001016200019e565b5090565b6000604051905090565b600080fd5b600080fd5b600073ffffffffffffffffffffffffffffffffffffffff82169050919050565b6000620001fd82620001d0565b9050919050565b60006200021182620001f0565b9050919050565b620002238162000204565b81146200022f57600080fd5b50565b600081519050620002438162000218565b92915050565b60006200025682620001d0565b9050919050565b620002688162000249565b81146200027457600080fd5b50565b60008151905062000288816200025d565b92915050565b600080fd5b600080fd5b6000601f19601f8301169050919050565b7f4e487b7100000000000000000000000000000000000000000000000000000000600052604160045260246000fd5b620002e38262000298565b810181811067ffffffffffffffff82111715620003055762000304620002a9565b5b80604052505050565b60006200031a620001bc565b9050620003288282620002d8565b919050565b600067ffffffffffffffff8211156200034b576200034a620002a9565b5b620003568262000298565b9050602081019050919050565b60005b838110156200038357808201518184015260208101905062000366565b8381111562000393576000848401525b50505050565b6000620003b0620003aa846200032d565b6200030e565b905082815260208101848484011115620003cf57620003ce62000293565b5b620003dc84828562000363565b509392505050565b600082601f830112620003fc57620003fb6200028e565b5b81516200040e84826020860162000399565b91505092915050565b6000819050919050565b6200042c8162000417565b81146200043857600080fd5b50565b6000815190506200044c8162000421565b92915050565b6000819050919050565b620004678162000452565b81146200047357600080fd5b50565b60008151905062000487816200045c565b92915050565b600080600080600080600060e0888a031215620004af57620004ae620001c6565b5b6000620004bf8a828b0162000232565b9750506020620004d28a828b0162000277565b965050604088015167ffffffffffffffff811115620004f657620004f5620001cb565b5b620005048a828b01620003e4565b955050606088015167ffffffffffffffff811115620005285762000527620001cb565b5b620005368a828b01620003e4565b9450506080620005498a828b016200043b565b93505060a06200055c8a828b0162000476565b92505060c06200056f8a828b0162000476565b91505092959891949750929550565b7f4e487b7100000000000000000000000000000000000000000000000000000000600052602260045260246000fd5b60006002820490506001821680620005c657607f821691505b60208210811415620005dd57620005dc6200057e565b5b50919050565b610f4a80620005f36000396000f3fe6080604052600436106100955760003560e01c80636a956afd116100595780636a956afd146102b95780636d435421146102e25780638da5cb5b1461030b578063a035b1fe14610336578063a2b40d1914610361576101e0565b806306fdde03146101e25780631b2e320c1461020d578063230b9da314610238578063470dd8321461026357806363fbab481461028e576101e0565b366101e0576000600654116100df576040517f08c379a00000000000000000000000000000000000000000000000000000000081526004016100d69061095b565b60405180910390fd5b3460065414610123576040517f08c379a000000000000000000000000000000000000000000000000000000000815260040161011a906109ed565b60405180910390fd5b60008054906101000a900473ffffffffffffffffffffffffffffffffffffffff1673ffffffffffffffffffffffffffffffffffffffff1663d33a0cf43460055461016b61038a565b600160009054906101000a900473ffffffffffffffffffffffffffffffffffffffff166040518563ffffffff1660e01b81526004016101ac93929190610a67565b6000604051808303818588803b1580156101c557600080fd5b505af11580156101d9573d6000803e3d6000fd5b5050505050005b005b3480156101ee57600080fd5b506101f7610392565b6040516102049190610b26565b60405180910390f35b34801561021957600080fd5b50610222610420565b60405161022f9190610b61565b60405180910390f35b34801561024457600080fd5b5061024d610426565b60405161025a9190610bdb565b60405180910390f35b34801561026f57600080fd5b5061027861044a565b6040516102859190610b26565b60405180910390f35b34801561029a57600080fd5b506102a36104d8565b6040516102b09190610bf6565b60405180910390f35b3480156102c557600080fd5b506102e060048036038101906102db9190610c42565b6104de565b005b3480156102ee57600080fd5b5061030960048036038101906103049190610c6f565b610665565b005b34801561031757600080fd5b506103206107d4565b60405161032d9190610caf565b60405180910390f35b34801561034257600080fd5b5061034b6107fa565b6040516103589190610bf6565b60405180910390f35b34801561036d57600080fd5b5061038860048036038101906103839190610cf6565b610800565b005b600033905090565b6003805461039f90610d52565b80601f01602080910402602001604051908101604052809291908181526020018280546103cb90610d52565b80156104185780601f106103ed57610100808354040283529160200191610418565b820191906000526020600020905b8154815290600101906020018083116103fb57829003601f168201915b505050505081565b60025481565b60008054906101000a900473ffffffffffffffffffffffffffffffffffffffff1681565b6004805461045790610d52565b80601f016020809104026020016040519081016040528092919081815260200182805461048390610d52565b80156104d05780601f106104a5576101008083540402835291602001916104d0565b820191906000526020600020905b8154815290600101906020018083116104b357829003601f168201915b505050505081565b60055481565b600073ffffffffffffffffffffffffffffffffffffffff168173ffffffffffffffffffffffffffffffffffffffff16141561054e576040517f08c379a000000000000000000000000000000000000000000000000000000000815260040161054590610df6565b60405180910390fd5b600060065414610593576040517f08c379a000000000000000000000000000000000000000000000000000000000815260040161058a90610e62565b60405180910390fd5b6000600160009054906101000a900473ffffffffffffffffffffffffffffffffffffffff16905081600160006101000a81548173ffffffffffffffffffffffffffffffffffffffff021916908373ffffffffffffffffffffffffffffffffffffffff1602179055508173ffffffffffffffffffffffffffffffffffffffff168173ffffffffffffffffffffffffffffffffffffffff167fc8894f26f396ce8c004245c8b7cd1b92103a6e4302fcbab883987149ac01b7ec60006040516106599190610caf565b60405180910390a35050565b61066d61038a565b73ffffffffffffffffffffffffffffffffffffffff1660008054906101000a900473ffffffffffffffffffffffffffffffffffffffff1673ffffffffffffffffffffffffffffffffffffffff16146106fa576040517f08c379a00000000000000000000000000000000000000000000000000000000081526004016106f190610ef4565b60405180910390fd5b6000600160009054906101000a900473ffffffffffffffffffffffffffffffffffffffff16905082600160006101000a81548173ffffffffffffffffffffffffffffffffffffffff021916908373ffffffffffffffffffffffffffffffffffffffff16021790555060006006819055508273ffffffffffffffffffffffffffffffffffffffff168173ffffffffffffffffffffffffffffffffffffffff167fc8894f26f396ce8c004245c8b7cd1b92103a6e4302fcbab883987149ac01b7ec846040516107c79190610caf565b60405180910390a3505050565b600160009054906101000a900473ffffffffffffffffffffffffffffffffffffffff1681565b60065481565b61080861038a565b73ffffffffffffffffffffffffffffffffffffffff16600160009054906101000a900473ffffffffffffffffffffffffffffffffffffffff1673ffffffffffffffffffffffffffffffffffffffff1614806108b5575061086661038a565b73ffffffffffffffffffffffffffffffffffffffff1660008054906101000a900473ffffffffffffffffffffffffffffffffffffffff1673ffffffffffffffffffffffffffffffffffffffff16145b6108f4576040517f08c379a00000000000000000000000000000000000000000000000000000000081526004016108eb90610ef4565b60405180910390fd5b8060068190555050565b600082825260208201905092915050565b7f4974656d3a2074686973204974656d206973206e6f7420666f722073616c6500600082015250565b6000610945601f836108fe565b91506109508261090f565b602082019050919050565b6000602082019050818103600083015261097481610938565b9050919050565b7f4974656d3a206f6e6c792066756c6c207061796d656e7473206163636570746560008201527f6400000000000000000000000000000000000000000000000000000000000000602082015250565b60006109d76021836108fe565b91506109e28261097b565b604082019050919050565b60006020820190508181036000830152610a06816109ca565b9050919050565b6000819050919050565b610a2081610a0d565b82525050565b600073ffffffffffffffffffffffffffffffffffffffff82169050919050565b6000610a5182610a26565b9050919050565b610a6181610a46565b82525050565b6000606082019050610a7c6000830186610a17565b610a896020830185610a58565b610a966040830184610a58565b949350505050565b600081519050919050565b60005b83811015610ac7578082015181840152602081019050610aac565b83811115610ad6576000848401525b50505050565b6000601f19601f8301169050919050565b6000610af882610a9e565b610b0281856108fe565b9350610b12818560208601610aa9565b610b1b81610adc565b840191505092915050565b60006020820190508181036000830152610b408184610aed565b905092915050565b6000819050919050565b610b5b81610b48565b82525050565b6000602082019050610b766000830184610b52565b92915050565b6000819050919050565b6000610ba1610b9c610b9784610a26565b610b7c565b610a26565b9050919050565b6000610bb382610b86565b9050919050565b6000610bc582610ba8565b9050919050565b610bd581610bba565b82525050565b6000602082019050610bf06000830184610bcc565b92915050565b6000602082019050610c0b6000830184610a17565b92915050565b600080fd5b610c1f81610a46565b8114610c2a57600080fd5b50565b600081359050610c3c81610c16565b92915050565b600060208284031215610c5857610c57610c11565b5b6000610c6684828501610c2d565b91505092915050565b60008060408385031215610c8657610c85610c11565b5b6000610c9485828601610c2d565b9250506020610ca585828601610c2d565b9150509250929050565b6000602082019050610cc46000830184610a58565b92915050565b610cd381610a0d565b8114610cde57600080fd5b50565b600081359050610cf081610cca565b92915050565b600060208284031215610d0c57610d0b610c11565b5b6000610d1a84828501610ce1565b91505092915050565b7f4e487b7100000000000000000000000000000000000000000000000000000000600052602260045260246000fd5b60006002820490506001821680610d6a57607f821691505b60208210811415610d7e57610d7d610d23565b5b50919050565b7f4f776e61626c653a206e6577206f776e657220697320746865207a65726f206160008201527f6464726573730000000000000000000000000000000000000000000000000000602082015250565b6000610de06026836108fe565b9150610deb82610d84565b604082019050919050565b60006020820190508181036000830152610e0f81610dd3565b9050919050565b7f4974656d3a2074686973204974656d20697320666f722073616c650000000000600082015250565b6000610e4c601b836108fe565b9150610e5782610e16565b602082019050919050565b60006020820190508181036000830152610e7b81610e3f565b9050919050565b7f4974656d3a2063616c6c6572206973206e6f7420746865206f776e6572206f7260008201527f20706172656e7420636f6e747261637400000000000000000000000000000000602082015250565b6000610ede6030836108fe565b9150610ee982610e82565b604082019050919050565b60006020820190508181036000830152610f0d81610ed1565b905091905056fea2646970667358221220e7d4d8464fec31d4041b1d908e0e792785497af8c30b3de148e15f309ffc582f64736f6c634300080b0033608060405260405162001c4738038062001c478339818101604052810190620000299190620002be565b600062015180426200003c919062000353565b905062000059816000620001c460201b62000efb1790919060201c565b83600160006101000a81548173ffffffffffffffffffffffffffffffffffffffff021916908373ffffffffffffffffffffffffffffffffffffffff16021790555082600260006101000a81548173ffffffffffffffffffffffffffffffffffffffff021916908373ffffffffffffffffffffffffffffffffffffffff16021790555081600360006101000a81548173ffffffffffffffffffffffffffffffffffffffff021916908373ffffffffffffffffffffffffffffffffffffffff1602179055506000600360146101000a81548160ff02191690836004811115620001455762000144620003b0565b5b02179055507f6e9eb88a2b4685b02dacc5a724c248755eee555f7f388e9aadab99236cc7b3de6200017b620001f360201b60201c565b600360149054906101000a900460ff166004811115620001a0576200019f620003b0565b5b83604051620001b29392919062000433565b60405180910390a15050505062000470565b808260000160006101000a81548167ffffffffffffffff021916908367ffffffffffffffff1602179055505050565b600033905090565b600080fd5b600073ffffffffffffffffffffffffffffffffffffffff82169050919050565b60006200022d8262000200565b9050919050565b6200023f8162000220565b81146200024b57600080fd5b50565b6000815190506200025f8162000234565b92915050565b6000620002728262000200565b9050919050565b6000620002868262000265565b9050919050565b620002988162000279565b8114620002a457600080fd5b50565b600081519050620002b8816200028d565b92915050565b600080600060608486031215620002da57620002d9620001fb565b5b6000620002ea868287016200024e565b9350506020620002fd868287016200024e565b92505060406200031086828701620002a7565b9150509250925092565b6000819050919050565b7f4e487b7100000000000000000000000000000000000000000000000000000000600052601160045260246000fd5b600062000360826200031a565b91506200036d836200031a565b9250827fffffffffffffffffffffffffffffffffffffffffffffffffffffffffffffffff03821115620003a557620003a462000324565b5b828201905092915050565b7f4e487b7100000000000000000000000000000000000000000000000000000000600052602160045260246000fd5b620003ea8162000220565b82525050565b600060ff82169050919050565b6200040881620003f0565b82525050565b600067ffffffffffffffff82169050919050565b6200042d816200040e565b82525050565b60006060820190506200044a6000830186620003df565b620004596020830185620003fd565b62000468604083018462000422565b949350505050565b6117c780620004806000396000f3fe608060405234801561001057600080fd5b506004361061009e5760003560e01c80634194d32a116100665780634194d32a146100fd5780635a77dc46146101075780635f8d96de146101255780638d76f94014610143578063c19d93fb146101615761009e565b80630656e748146100a357806308551a53146100ad578063099a99f7146100cb5780631081b97a146100d557806312065fe0146100df575b600080fd5b6100ab61017f565b005b6100b56103ca565b6040516100c29190611010565b60405180910390f35b6100d36103f0565b005b6100dd61063b565b005b6100e7610a5c565b6040516100f49190611044565b60405180910390f35b610105610a64565b005b61010f610e4e565b60405161011c9190611010565b60405180910390f35b61012d610e74565b60405161013a9190611082565b60405180910390f35b61014b610ec2565b60405161015891906110fc565b60405180910390f35b610169610ee8565b604051610176919061118e565b60405180910390f35b610187610f2a565b73ffffffffffffffffffffffffffffffffffffffff16600260009054906101000a900473ffffffffffffffffffffffffffffffffffffffff1673ffffffffffffffffffffffffffffffffffffffff1614610216576040517f08c379a000000000000000000000000000000000000000000000000000000000815260040161020d90611206565b60405180910390fd5b61025d60006040518060200160405290816000820160009054906101000a900467ffffffffffffffff1667ffffffffffffffff1667ffffffffffffffff1681525050610f32565b61029c576040517f08c379a000000000000000000000000000000000000000000000000000000000815260040161029390611272565b60405180910390fd5b600160048111156102b0576102af611117565b5b600360149054906101000a900460ff1660048111156102d2576102d1611117565b5b14610312576040517f08c379a000000000000000000000000000000000000000000000000000000000815260040161030990611304565b60405180910390fd5b600062093a80426103239190611353565b9050610339816000610efb90919063ffffffff16565b6002600360146101000a81548160ff0219169083600481111561035f5761035e611117565b5b02179055507f6e9eb88a2b4685b02dacc5a724c248755eee555f7f388e9aadab99236cc7b3de61038d610f2a565b600360149054906101000a900460ff1660048111156103af576103ae611117565b5b836040516103bf939291906113c5565b60405180910390a150565b600260009054906101000a900473ffffffffffffffffffffffffffffffffffffffff1681565b6103f8610f2a565b73ffffffffffffffffffffffffffffffffffffffff16600260009054906101000a900473ffffffffffffffffffffffffffffffffffffffff1673ffffffffffffffffffffffffffffffffffffffff1614610487576040517f08c379a000000000000000000000000000000000000000000000000000000000815260040161047e90611206565b60405180910390fd5b6104ce60006040518060200160405290816000820160009054906101000a900467ffffffffffffffff1667ffffffffffffffff1667ffffffffffffffff1681525050610f32565b61050d576040517f08c379a000000000000000000000000000000000000000000000000000000000815260040161050490611272565b60405180910390fd5b6000600481111561052157610520611117565b5b600360149054906101000a900460ff16600481111561054357610542611117565b5b14610583576040517f08c379a000000000000000000000000000000000000000000000000000000000815260040161057a9061146e565b60405180910390fd5b60006202a300426105949190611353565b90506105aa816000610efb90919063ffffffff16565b6001600360146101000a81548160ff021916908360048111156105d0576105cf611117565b5b02179055507f6e9eb88a2b4685b02dacc5a724c248755eee555f7f388e9aadab99236cc7b3de6105fe610f2a565b600360149054906101000a900460ff1660048111156106205761061f611117565b5b83604051610630939291906113c5565b60405180910390a150565b610643610f2a565b73ffffffffffffffffffffffffffffffffffffffff16600160009054906101000a900473ffffffffffffffffffffffffffffffffffffffff1673ffffffffffffffffffffffffffffffffffffffff16146106d2576040517f08c379a00000000000000000000000000000000000000000000000000000000081526004016106c990611500565b60405180910390fd5b61071960006040518060200160405290816000820160009054906101000a900467ffffffffffffffff1667ffffffffffffffff1667ffffffffffffffff1681525050610f32565b610758576040517f08c379a000000000000000000000000000000000000000000000000000000000815260040161074f90611272565b60405180910390fd5b6002600481111561076c5761076b611117565b5b600360149054906101000a900460ff16600481111561078e5761078d611117565b5b146107ce576040517f08c379a00000000000000000000000000000000000000000000000000000000081526004016107c590611592565b60405180910390fd5b6107d86000610f4c565b600360009054906101000a900473ffffffffffffffffffffffffffffffffffffffff1673ffffffffffffffffffffffffffffffffffffffff1663230b9da36040518163ffffffff1660e01b8152600401602060405180830381865afa158015610845573d6000803e3d6000fd5b505050506040513d601f19601f820116820180604052508101906108699190611607565b73ffffffffffffffffffffffffffffffffffffffff1663c2601eb9600360009054906101000a900473ffffffffffffffffffffffffffffffffffffffff1673ffffffffffffffffffffffffffffffffffffffff166363fbab486040518163ffffffff1660e01b8152600401602060405180830381865afa1580156108f1573d6000803e3d6000fd5b505050506040513d601f19601f820116820180604052508101906109159190611660565b6040518263ffffffff1660e01b81526004016109319190611044565b600060405180830381600087803b15801561094b57600080fd5b505af115801561095f573d6000803e3d6000fd5b50505050600260009054906101000a900473ffffffffffffffffffffffffffffffffffffffff1673ffffffffffffffffffffffffffffffffffffffff166108fc479081150290604051600060405180830381858888f193505050501580156109cb573d6000803e3d6000fd5b5060038060146101000a81548160ff021916908360048111156109f1576109f0611117565b5b02179055507f6e9eb88a2b4685b02dacc5a724c248755eee555f7f388e9aadab99236cc7b3de610a1f610f2a565b600360149054906101000a900460ff166004811115610a4157610a40611117565b5b6000604051610a52939291906116c8565b60405180910390a1565b600047905090565b610a6c610f2a565b73ffffffffffffffffffffffffffffffffffffffff16600160009054906101000a900473ffffffffffffffffffffffffffffffffffffffff1673ffffffffffffffffffffffffffffffffffffffff1614610afb576040517f08c379a0000000000000000000000000000000000000000000000000000000008152600401610af290611500565b60405180910390fd5b60006004811115610b0f57610b0e611117565b5b600360149054906101000a900460ff166004811115610b3157610b30611117565b5b1480610b805750610b7f60006040518060200160405290816000820160009054906101000a900467ffffffffffffffff1667ffffffffffffffff1667ffffffffffffffff1681525050610f7b565b5b610bbf576040517f08c379a0000000000000000000000000000000000000000000000000000000008152600401610bb690611771565b60405180910390fd5b610bc96000610f4c565b6004600360146101000a81548160ff02191690836004811115610bef57610bee611117565b5b0217905550600360009054906101000a900473ffffffffffffffffffffffffffffffffffffffff1673ffffffffffffffffffffffffffffffffffffffff1663230b9da36040518163ffffffff1660e01b8152600401602060405180830381865afa158015610c61573d6000803e3d6000fd5b505050506040513d601f19601f82011682018060405250810190610c859190611607565b73ffffffffffffffffffffffffffffffffffffffff1663574bd60c600360009054906101000a900473ffffffffffffffffffffffffffffffffffffffff1673ffffffffffffffffffffffffffffffffffffffff166363fbab486040518163ffffffff1660e01b8152600401602060405180830381865afa158015610d0d573d6000803e3d6000fd5b505050506040513d601f19601f82011682018060405250810190610d319190611660565b6040518263ffffffff1660e01b8152600401610d4d9190611044565b600060405180830381600087803b158015610d6757600080fd5b505af1158015610d7b573d6000803e3d6000fd5b50505050600160009054906101000a900473ffffffffffffffffffffffffffffffffffffffff1673ffffffffffffffffffffffffffffffffffffffff166108fc479081150290604051600060405180830381858888f19350505050158015610de7573d6000803e3d6000fd5b507f6e9eb88a2b4685b02dacc5a724c248755eee555f7f388e9aadab99236cc7b3de610e11610f2a565b600360149054906101000a900460ff166004811115610e3357610e32611117565b5b6000604051610e44939291906116c8565b60405180910390a1565b600160009054906101000a900473ffffffffffffffffffffffffffffffffffffffff1681565b6000610ebd60006040518060200160405290816000820160009054906101000a900467ffffffffffffffff1667ffffffffffffffff1667ffffffffffffffff1681525050610fa7565b905090565b600360009054906101000a900473ffffffffffffffffffffffffffffffffffffffff1681565b600360149054906101000a900460ff1681565b808260000160006101000a81548167ffffffffffffffff021916908367ffffffffffffffff1602179055505050565b600033905090565b600042826000015167ffffffffffffffff16119050919050565b60008160000160006101000a81548167ffffffffffffffff021916908367ffffffffffffffff16021790555050565b6000610f8682610fb5565b8015610fa0575042826000015167ffffffffffffffff1611155b9050919050565b600081600001519050919050565b600080826000015167ffffffffffffffff16119050919050565b600073ffffffffffffffffffffffffffffffffffffffff82169050919050565b6000610ffa82610fcf565b9050919050565b61100a81610fef565b82525050565b60006020820190506110256000830184611001565b92915050565b6000819050919050565b61103e8161102b565b82525050565b60006020820190506110596000830184611035565b92915050565b600067ffffffffffffffff82169050919050565b61107c8161105f565b82525050565b60006020820190506110976000830184611073565b92915050565b6000819050919050565b60006110c26110bd6110b884610fcf565b61109d565b610fcf565b9050919050565b60006110d4826110a7565b9050919050565b60006110e6826110c9565b9050919050565b6110f6816110db565b82525050565b600060208201905061111160008301846110ed565b92915050565b7f4e487b7100000000000000000000000000000000000000000000000000000000600052602160045260246000fd5b6005811061115757611156611117565b5b50565b600081905061116882611146565b919050565b60006111788261115a565b9050919050565b6111888161116d565b82525050565b60006020820190506111a3600083018461117f565b92915050565b600082825260208201905092915050565b7f4f726465723a2063616c6c6572206973206e6f74207468652073656c6c657200600082015250565b60006111f0601f836111a9565b91506111fb826111ba565b602082019050919050565b6000602082019050818103600083015261121f816111e3565b9050919050565b7f4f726465723a207472616e73616374696f6e2069732065787069726564000000600082015250565b600061125c601d836111a9565b915061126782611226565b602082019050919050565b6000602082019050818103600083015261128b8161124f565b9050919050565b7f4f726465723a207374617465206d7573742062652022436f6e6669726d65642260008201527f20746f2074726967676572207368697070696e67000000000000000000000000602082015250565b60006112ee6034836111a9565b91506112f982611292565b604082019050919050565b6000602082019050818103600083015261131d816112e1565b9050919050565b7f4e487b7100000000000000000000000000000000000000000000000000000000600052601160045260246000fd5b600061135e8261102b565b91506113698361102b565b9250827fffffffffffffffffffffffffffffffffffffffffffffffffffffffffffffffff0382111561139e5761139d611324565b5b828201905092915050565b600060ff82169050919050565b6113bf816113a9565b82525050565b60006060820190506113da6000830186611001565b6113e760208301856113b6565b6113f46040830184611073565b949350505050565b7f4f726465723a207374617465206d7573742062652022506c616365642220746f60008201527f207472696767657220636f6e6669726d00000000000000000000000000000000602082015250565b60006114586030836111a9565b9150611463826113fc565b604082019050919050565b600060208201905081810360008301526114878161144b565b9050919050565b7f4f726465723a2063616c6c6572206973206e6f7420746865207075726368617360008201527f6572000000000000000000000000000000000000000000000000000000000000602082015250565b60006114ea6022836111a9565b91506114f58261148e565b604082019050919050565b60006020820190508181036000830152611519816114dd565b9050919050565b7f4f726465723a207374617465206d75737420626520225368697070696e67222060008201527f746f205265636569766564000000000000000000000000000000000000000000602082015250565b600061157c602b836111a9565b915061158782611520565b604082019050919050565b600060208201905081810360008301526115ab8161156f565b9050919050565b600080fd5b60006115c282610fcf565b9050919050565b60006115d4826115b7565b9050919050565b6115e4816115c9565b81146115ef57600080fd5b50565b600081519050611601816115db565b92915050565b60006020828403121561161d5761161c6115b2565b5b600061162b848285016115f2565b91505092915050565b61163d8161102b565b811461164857600080fd5b50565b60008151905061165a81611634565b92915050565b600060208284031215611676576116756115b2565b5b60006116848482850161164b565b91505092915050565b6000819050919050565b60006116b26116ad6116a88461168d565b61109d565b61105f565b9050919050565b6116c281611697565b82525050565b60006060820190506116dd6000830186611001565b6116ea60208301856113b6565b6116f760408301846116b9565b949350505050565b7f4f726465723a207472616e73616374696f6e2069732070656e64696e67206f7260008201527f2064656c6976657265642c2063616e206e6f742063616e63656c206e6f770000602082015250565b600061175b603e836111a9565b9150611766826116ff565b604082019050919050565b6000602082019050818103600083015261178a8161174e565b905091905056fea2646970667358221220cbf9f69cfa21a64aab8ee81b55c35aa542694275e43bd59ff03daa702bfa03fa64736f6c634300080b0033a2646970667358221220af16434c6a3d8955b87b97fe855ea0fbae235fbc8fbc10f1bad2fa831d0b76e164736f6c634300080b0033",
  "immutableReferences": {},
  "source": "// SPDX-License-Identifier: MIT\r\npragma solidity ^0.8.11;\r\n\r\nimport \"./Ownable.sol\";\r\nimport \"./Item.sol\";\r\nimport \"./Order.sol\";\r\nimport \"./Counters.sol\";\r\n\r\ncontract ItemManager is Ownable {\r\n    using Counters for Counters.Counter;\r\n\r\n    Counters.Counter private itemIndex;\r\n    enum ItemState {\r\n        Created,\r\n        Sold,\r\n        Delivered,\r\n        Cancelled\r\n    }\r\n    struct S_Item {\r\n        Item _item;\r\n        Order _order;\r\n        ItemManager.ItemState _state;\r\n    }\r\n    mapping(uint256 => S_Item) public items;\r\n\r\n    event ItemStateChanged(uint256 indexed itemIndex, uint8 state);\r\n\r\n    modifier itemFound(uint256 _itemIndex) {\r\n        require(\r\n            _itemIndex < itemIndex.current(),\r\n            \"ItemManager: item not found!\"\r\n        );\r\n        _;\r\n    }\r\n\r\n    modifier onlyItemOwner(uint256 _itemIndex) {\r\n        require(\r\n            items[_itemIndex]._item.owner() == _msgSender(),\r\n            \"ItemManager: caller is not the Item owner\"\r\n        );\r\n        _;\r\n    }\r\n\r\n    // 0x3031303230333034000000000000000000000000000000000000000000000000\r\n    // 0x4d741b6f1eb29cb2a9b9911c82f56fa8d73b04959d3d9d222895df6c0b28aa15\r\n    \r\n    function createItem(\r\n        string memory _name,\r\n        string memory _specifications,\r\n        bytes32 _rawDataHash,\r\n        uint256 _price\r\n    ) public {\r\n        uint256 curentItemIndex = itemIndex.current();\r\n        Item item = new Item(\r\n            this,\r\n            _msgSender(),\r\n            _name,\r\n            _specifications,\r\n            _rawDataHash,\r\n            _price,\r\n            curentItemIndex\r\n        );\r\n        S_Item storage s_item = items[curentItemIndex];\r\n        s_item._item = item;\r\n        s_item._state = ItemState.Created;\r\n        emit ItemStateChanged(curentItemIndex, uint8(s_item._state));\r\n        itemIndex.increment();\r\n    }\r\n\r\n    function triggerDelivered(uint256 _itemIndex) public itemFound(_itemIndex) {\r\n        require(\r\n            items[_itemIndex]._state == ItemState.Sold,\r\n            \"ItemManager: this item has not been purchased\"\r\n        );\r\n        require(\r\n            address(items[_itemIndex]._order) == _msgSender(),\r\n            \"ItemManager: this function must be call from Order contract\"\r\n        );\r\n        items[_itemIndex]._item.transferOwnership(items[_itemIndex]._order.purchaser(), address(items[_itemIndex]._order));\r\n        items[_itemIndex]._state = ItemState.Delivered;\r\n        emit ItemStateChanged(_itemIndex, uint8(items[_itemIndex]._state));\r\n    }\r\n\r\n    function triggerPayment(\r\n        uint256 _itemIndex,\r\n        address _purchaser,\r\n        address _owner\r\n    ) public payable itemFound(_itemIndex) {\r\n        S_Item storage s_item = items[_itemIndex];\r\n        require(\r\n            _msgSender() == address(s_item._item),\r\n            \"ItemManager: this function must be call from Item contract\"\r\n        );\r\n        require(\r\n            s_item._state == ItemState.Created,\r\n            \"ItemManager: this item is further on chain\"\r\n        );\r\n        Order order = new Order{value: msg.value}(\r\n            _purchaser,\r\n            _owner,\r\n            s_item._item\r\n        );\r\n        s_item._order = order;\r\n        s_item._state = ItemState.Sold;\r\n        emit ItemStateChanged(_itemIndex, uint8(s_item._state));\r\n    }\r\n\r\n    function triggerResale(uint256 _itemIndex, uint256 _price)\r\n        public\r\n        itemFound(_itemIndex)\r\n        onlyItemOwner(_itemIndex)\r\n    {\r\n        S_Item storage s_item = items[_itemIndex];\r\n        require(\r\n            s_item._state == ItemState.Delivered || s_item._state == ItemState.Cancelled,\r\n            'ItemManager: This item state must be \"Delivered\" or \"Cancelled\" to make for resale!'\r\n        );\r\n        s_item._item.changePrice(_price);\r\n        s_item._state = ItemState.Created;\r\n        emit ItemStateChanged(_itemIndex, uint8(s_item._state));\r\n    }\r\n\r\n    function triggerCancel(uint256 _itemIndex)\r\n        public\r\n        itemFound(_itemIndex)\r\n    {\r\n        S_Item storage s_item = items[_itemIndex];\r\n        require(\r\n            address(items[_itemIndex]._order) == _msgSender(),\r\n            \"ItemManager: this function must be call from Order contract\"\r\n        );\r\n        require(\r\n            s_item._state == ItemState.Sold,\r\n            \"ItemManager: this item is further on chain\"\r\n        );\r\n        s_item._item.changePrice(0);\r\n        s_item._state = ItemState.Cancelled;\r\n        emit ItemStateChanged(_itemIndex, uint8(s_item._state));\r\n    }\r\n\r\n    function currentItemIndex() public view returns (uint256) {\r\n        return itemIndex.current();\r\n    }\r\n\r\n    receive() external payable {}\r\n\r\n    fallback() external payable {}\r\n}\r\n",
  "sourcePath": "D:\\Office\\DAPP\\Blockchain1Laps\\blockchain01\\contracts\\ItemManager.sol",
  "compiler": {
    "name": "solc",
    "version": "0.8.11+commit.d7f03943.Emscripten.clang"
  },
  "schemaVersion": "3.4.3",
  "updatedAt": "2022-02-21T19:43:16.393Z",
  "networkType": "ethereum",
  "devdoc": {
    "kind": "dev",
    "methods": {
      "owner()": {
        "details": "Returns the address of the current owner."
      },
      "transferOwnership(address)": {
        "details": "Transfers ownership of the contract to a new account (`newOwner`). Can only be called by the current owner."
      }
    },
    "version": 1
  },
  "userdoc": {
    "kind": "user",
    "methods": {},
    "version": 1
  }
}