{
  "contractName": "Item",
  "abi": [
    {
      "inputs": [
        {
          "internalType": "contract ItemManager",
          "name": "_parentContract",
          "type": "address"
        },
        {
          "internalType": "address",
          "name": "_owner",
          "type": "address"
        },
        {
          "internalType": "string",
          "name": "_name",
          "type": "string"
        },
        {
          "internalType": "string",
          "name": "_specifications",
          "type": "string"
        },
        {
          "internalType": "string",
          "name": "_rawDataUrl",
          "type": "string"
        },
        {
          "internalType": "bytes32",
          "name": "_rawDataHash",
          "type": "bytes32"
        },
        {
          "internalType": "uint256",
          "name": "_price",
          "type": "uint256"
        },
        {
          "internalType": "uint256",
          "name": "_indexInParentContract",
          "type": "uint256"
        }
      ],
      "stateMutability": "nonpayable",
      "type": "constructor"
    },
    {
      "anonymous": false,
      "inputs": [
        {
          "indexed": true,
          "internalType": "address",
          "name": "previousOwner",
          "type": "address"
        },
        {
          "indexed": true,
          "internalType": "address",
          "name": "newOwner",
          "type": "address"
        },
        {
          "indexed": false,
          "internalType": "address",
          "name": "recipt",
          "type": "address"
        }
      ],
      "name": "OwnershipTransferred",
      "type": "event"
    },
    {
      "stateMutability": "payable",
      "type": "fallback"
    },
    {
      "inputs": [],
      "name": "indexInParentContract",
      "outputs": [
        {
          "internalType": "uint256",
          "name": "",
          "type": "uint256"
        }
      ],
      "stateMutability": "view",
      "type": "function"
    },
    {
      "inputs": [],
      "name": "name",
      "outputs": [
        {
          "internalType": "string",
          "name": "",
          "type": "string"
        }
      ],
      "stateMutability": "view",
      "type": "function"
    },
    {
      "inputs": [],
      "name": "owner",
      "outputs": [
        {
          "internalType": "address",
          "name": "",
          "type": "address"
        }
      ],
      "stateMutability": "view",
      "type": "function"
    },
    {
      "inputs": [],
      "name": "parentContract",
      "outputs": [
        {
          "internalType": "contract ItemManager",
          "name": "",
          "type": "address"
        }
      ],
      "stateMutability": "view",
      "type": "function"
    },
    {
      "inputs": [],
      "name": "price",
      "outputs": [
        {
          "internalType": "uint256",
          "name": "",
          "type": "uint256"
        }
      ],
      "stateMutability": "view",
      "type": "function"
    },
    {
      "inputs": [],
      "name": "rawDataHash",
      "outputs": [
        {
          "internalType": "bytes32",
          "name": "",
          "type": "bytes32"
        }
      ],
      "stateMutability": "view",
      "type": "function"
    },
    {
      "inputs": [],
      "name": "rawDataUrl",
      "outputs": [
        {
          "internalType": "string",
          "name": "",
          "type": "string"
        }
      ],
      "stateMutability": "view",
      "type": "function"
    },
    {
      "inputs": [],
      "name": "specifications",
      "outputs": [
        {
          "internalType": "string",
          "name": "",
          "type": "string"
        }
      ],
      "stateMutability": "view",
      "type": "function"
    },
    {
      "stateMutability": "payable",
      "type": "receive"
    },
    {
      "inputs": [
        {
          "internalType": "uint256",
          "name": "_newPrice",
          "type": "uint256"
        }
      ],
      "name": "changePrice",
      "outputs": [],
      "stateMutability": "nonpayable",
      "type": "function"
    },
    {
      "inputs": [
        {
          "internalType": "address",
          "name": "_newOwner",
          "type": "address"
        }
      ],
      "name": "giveOwnershipTo",
      "outputs": [],
      "stateMutability": "nonpayable",
      "type": "function"
    },
    {
      "inputs": [
        {
          "internalType": "address",
          "name": "_newOwner",
          "type": "address"
        },
        {
          "internalType": "address",
          "name": "_recipt",
          "type": "address"
        }
      ],
      "name": "transferOwnership",
      "outputs": [],
      "stateMutability": "nonpayable",
      "type": "function"
    }
  ],
  "bytecode": "0x60806040523480156200001157600080fd5b5060405162001650380380620016508339818101604052810190620000379190620004a7565b876000806101000a81548173ffffffffffffffffffffffffffffffffffffffff021916908373ffffffffffffffffffffffffffffffffffffffff16021790555086600160006101000a81548173ffffffffffffffffffffffffffffffffffffffff021916908373ffffffffffffffffffffffffffffffffffffffff1602179055508560039080519060200190620000d092919062000126565b508460049080519060200190620000e992919062000126565b5083600590805190602001906200010292919062000126565b50826002819055508160078190555080600681905550505050505050505062000632565b8280546200013490620005fc565b90600052602060002090601f016020900481019282620001585760008555620001a4565b82601f106200017357805160ff1916838001178555620001a4565b82800160010185558215620001a4579182015b82811115620001a357825182559160200191906001019062000186565b5b509050620001b39190620001b7565b5090565b5b80821115620001d2576000816000905550600101620001b8565b5090565b6000604051905090565b600080fd5b600080fd5b600073ffffffffffffffffffffffffffffffffffffffff82169050919050565b60006200021782620001ea565b9050919050565b60006200022b826200020a565b9050919050565b6200023d816200021e565b81146200024957600080fd5b50565b6000815190506200025d8162000232565b92915050565b60006200027082620001ea565b9050919050565b620002828162000263565b81146200028e57600080fd5b50565b600081519050620002a28162000277565b92915050565b600080fd5b600080fd5b6000601f19601f8301169050919050565b7f4e487b7100000000000000000000000000000000000000000000000000000000600052604160045260246000fd5b620002fd82620002b2565b810181811067ffffffffffffffff821117156200031f576200031e620002c3565b5b80604052505050565b600062000334620001d6565b9050620003428282620002f2565b919050565b600067ffffffffffffffff821115620003655762000364620002c3565b5b6200037082620002b2565b9050602081019050919050565b60005b838110156200039d57808201518184015260208101905062000380565b83811115620003ad576000848401525b50505050565b6000620003ca620003c48462000347565b62000328565b905082815260208101848484011115620003e957620003e8620002ad565b5b620003f68482856200037d565b509392505050565b600082601f830112620004165762000415620002a8565b5b815162000428848260208601620003b3565b91505092915050565b6000819050919050565b620004468162000431565b81146200045257600080fd5b50565b60008151905062000466816200043b565b92915050565b6000819050919050565b62000481816200046c565b81146200048d57600080fd5b50565b600081519050620004a18162000476565b92915050565b600080600080600080600080610100898b031215620004cb57620004ca620001e0565b5b6000620004db8b828c016200024c565b9850506020620004ee8b828c0162000291565b975050604089015167ffffffffffffffff811115620005125762000511620001e5565b5b620005208b828c01620003fe565b965050606089015167ffffffffffffffff811115620005445762000543620001e5565b5b620005528b828c01620003fe565b955050608089015167ffffffffffffffff811115620005765762000575620001e5565b5b620005848b828c01620003fe565b94505060a0620005978b828c0162000455565b93505060c0620005aa8b828c0162000490565b92505060e0620005bd8b828c0162000490565b9150509295985092959890939650565b7f4e487b7100000000000000000000000000000000000000000000000000000000600052602260045260246000fd5b600060028204905060018216806200061557607f821691505b602082108114156200062c576200062b620005cd565b5b50919050565b61100e80620006426000396000f3fe6080604052600436106100a05760003560e01c80636a956afd116100645780636a956afd146102c45780636d435421146102ed5780638da5cb5b14610316578063a035b1fe14610341578063a2b40d191461036c578063dc2ca88e14610395576101eb565b806306fdde03146101ed5780631b2e320c14610218578063230b9da314610243578063470dd8321461026e57806363fbab4814610299576101eb565b366101eb576000600754116100ea576040517f08c379a00000000000000000000000000000000000000000000000000000000081526004016100e190610a1f565b60405180910390fd5b346007541461012e576040517f08c379a000000000000000000000000000000000000000000000000000000000815260040161012590610ab1565b60405180910390fd5b60008054906101000a900473ffffffffffffffffffffffffffffffffffffffff1673ffffffffffffffffffffffffffffffffffffffff1663d33a0cf4346006546101766103c0565b600160009054906101000a900473ffffffffffffffffffffffffffffffffffffffff166040518563ffffffff1660e01b81526004016101b793929190610b2b565b6000604051808303818588803b1580156101d057600080fd5b505af11580156101e4573d6000803e3d6000fd5b5050505050005b005b3480156101f957600080fd5b506102026103c8565b60405161020f9190610bea565b60405180910390f35b34801561022457600080fd5b5061022d610456565b60405161023a9190610c25565b60405180910390f35b34801561024f57600080fd5b5061025861045c565b6040516102659190610c9f565b60405180910390f35b34801561027a57600080fd5b50610283610480565b6040516102909190610bea565b60405180910390f35b3480156102a557600080fd5b506102ae61050e565b6040516102bb9190610cba565b60405180910390f35b3480156102d057600080fd5b506102eb60048036038101906102e69190610d06565b610514565b005b3480156102f957600080fd5b50610314600480360381019061030f9190610d33565b61069b565b005b34801561032257600080fd5b5061032b61080a565b6040516103389190610d73565b60405180910390f35b34801561034d57600080fd5b50610356610830565b6040516103639190610cba565b60405180910390f35b34801561037857600080fd5b50610393600480360381019061038e9190610dba565b610836565b005b3480156103a157600080fd5b506103aa610934565b6040516103b79190610bea565b60405180910390f35b600033905090565b600380546103d590610e16565b80601f016020809104026020016040519081016040528092919081815260200182805461040190610e16565b801561044e5780601f106104235761010080835404028352916020019161044e565b820191906000526020600020905b81548152906001019060200180831161043157829003601f168201915b505050505081565b60025481565b60008054906101000a900473ffffffffffffffffffffffffffffffffffffffff1681565b6004805461048d90610e16565b80601f01602080910402602001604051908101604052809291908181526020018280546104b990610e16565b80156105065780601f106104db57610100808354040283529160200191610506565b820191906000526020600020905b8154815290600101906020018083116104e957829003601f168201915b505050505081565b60065481565b600073ffffffffffffffffffffffffffffffffffffffff168173ffffffffffffffffffffffffffffffffffffffff161415610584576040517f08c379a000000000000000000000000000000000000000000000000000000000815260040161057b90610eba565b60405180910390fd5b6000600754146105c9576040517f08c379a00000000000000000000000000000000000000000000000000000000081526004016105c090610f26565b60405180910390fd5b6000600160009054906101000a900473ffffffffffffffffffffffffffffffffffffffff16905081600160006101000a81548173ffffffffffffffffffffffffffffffffffffffff021916908373ffffffffffffffffffffffffffffffffffffffff1602179055508173ffffffffffffffffffffffffffffffffffffffff168173ffffffffffffffffffffffffffffffffffffffff167fc8894f26f396ce8c004245c8b7cd1b92103a6e4302fcbab883987149ac01b7ec600060405161068f9190610d73565b60405180910390a35050565b6106a36103c0565b73ffffffffffffffffffffffffffffffffffffffff1660008054906101000a900473ffffffffffffffffffffffffffffffffffffffff1673ffffffffffffffffffffffffffffffffffffffff1614610730576040517f08c379a000000000000000000000000000000000000000000000000000000000815260040161072790610fb8565b60405180910390fd5b6000600160009054906101000a900473ffffffffffffffffffffffffffffffffffffffff16905082600160006101000a81548173ffffffffffffffffffffffffffffffffffffffff021916908373ffffffffffffffffffffffffffffffffffffffff16021790555060006007819055508273ffffffffffffffffffffffffffffffffffffffff168173ffffffffffffffffffffffffffffffffffffffff167fc8894f26f396ce8c004245c8b7cd1b92103a6e4302fcbab883987149ac01b7ec846040516107fd9190610d73565b60405180910390a3505050565b600160009054906101000a900473ffffffffffffffffffffffffffffffffffffffff1681565b60075481565b61083e6103c0565b73ffffffffffffffffffffffffffffffffffffffff16600160009054906101000a900473ffffffffffffffffffffffffffffffffffffffff1673ffffffffffffffffffffffffffffffffffffffff1614806108eb575061089c6103c0565b73ffffffffffffffffffffffffffffffffffffffff1660008054906101000a900473ffffffffffffffffffffffffffffffffffffffff1673ffffffffffffffffffffffffffffffffffffffff16145b61092a576040517f08c379a000000000000000000000000000000000000000000000000000000000815260040161092190610fb8565b60405180910390fd5b8060078190555050565b6005805461094190610e16565b80601f016020809104026020016040519081016040528092919081815260200182805461096d90610e16565b80156109ba5780601f1061098f576101008083540402835291602001916109ba565b820191906000526020600020905b81548152906001019060200180831161099d57829003601f168201915b505050505081565b600082825260208201905092915050565b7f4974656d3a2074686973204974656d206973206e6f7420666f722073616c6500600082015250565b6000610a09601f836109c2565b9150610a14826109d3565b602082019050919050565b60006020820190508181036000830152610a38816109fc565b9050919050565b7f4974656d3a206f6e6c792066756c6c207061796d656e7473206163636570746560008201527f6400000000000000000000000000000000000000000000000000000000000000602082015250565b6000610a9b6021836109c2565b9150610aa682610a3f565b604082019050919050565b60006020820190508181036000830152610aca81610a8e565b9050919050565b6000819050919050565b610ae481610ad1565b82525050565b600073ffffffffffffffffffffffffffffffffffffffff82169050919050565b6000610b1582610aea565b9050919050565b610b2581610b0a565b82525050565b6000606082019050610b406000830186610adb565b610b4d6020830185610b1c565b610b5a6040830184610b1c565b949350505050565b600081519050919050565b60005b83811015610b8b578082015181840152602081019050610b70565b83811115610b9a576000848401525b50505050565b6000601f19601f8301169050919050565b6000610bbc82610b62565b610bc681856109c2565b9350610bd6818560208601610b6d565b610bdf81610ba0565b840191505092915050565b60006020820190508181036000830152610c048184610bb1565b905092915050565b6000819050919050565b610c1f81610c0c565b82525050565b6000602082019050610c3a6000830184610c16565b92915050565b6000819050919050565b6000610c65610c60610c5b84610aea565b610c40565b610aea565b9050919050565b6000610c7782610c4a565b9050919050565b6000610c8982610c6c565b9050919050565b610c9981610c7e565b82525050565b6000602082019050610cb46000830184610c90565b92915050565b6000602082019050610ccf6000830184610adb565b92915050565b600080fd5b610ce381610b0a565b8114610cee57600080fd5b50565b600081359050610d0081610cda565b92915050565b600060208284031215610d1c57610d1b610cd5565b5b6000610d2a84828501610cf1565b91505092915050565b60008060408385031215610d4a57610d49610cd5565b5b6000610d5885828601610cf1565b9250506020610d6985828601610cf1565b9150509250929050565b6000602082019050610d886000830184610b1c565b92915050565b610d9781610ad1565b8114610da257600080fd5b50565b600081359050610db481610d8e565b92915050565b600060208284031215610dd057610dcf610cd5565b5b6000610dde84828501610da5565b91505092915050565b7f4e487b7100000000000000000000000000000000000000000000000000000000600052602260045260246000fd5b60006002820490506001821680610e2e57607f821691505b60208210811415610e4257610e41610de7565b5b50919050565b7f4f776e61626c653a206e6577206f776e657220697320746865207a65726f206160008201527f6464726573730000000000000000000000000000000000000000000000000000602082015250565b6000610ea46026836109c2565b9150610eaf82610e48565b604082019050919050565b60006020820190508181036000830152610ed381610e97565b9050919050565b7f4974656d3a2074686973204974656d20697320666f722073616c650000000000600082015250565b6000610f10601b836109c2565b9150610f1b82610eda565b602082019050919050565b60006020820190508181036000830152610f3f81610f03565b9050919050565b7f4974656d3a2063616c6c6572206973206e6f7420746865206f776e6572206f7260008201527f20706172656e7420636f6e747261637400000000000000000000000000000000602082015250565b6000610fa26030836109c2565b9150610fad82610f46565b604082019050919050565b60006020820190508181036000830152610fd181610f95565b905091905056fea2646970667358221220720dec28c16ff72115c586395b6a279735aeaaaea6a73f536f94e640caf9c07b64736f6c634300080b0033",
  "immutableReferences": {},
  "source": "// SPDX-License-Identifier: MIT\r\npragma solidity ^0.8.11;\r\n\r\nimport \"./Context.sol\";\r\nimport \"./ItemManager.sol\";\r\n\r\ncontract Item is Context {\r\n    ItemManager public parentContract;\r\n    address public owner;\r\n    bytes32 public rawDataHash;\r\n    string public name;\r\n    string public specifications;\r\n    string public rawDataUrl;\r\n    uint256 public indexInParentContract;\r\n    uint256 public price;\r\n\r\n    event OwnershipTransferred(\r\n        address indexed previousOwner,\r\n        address indexed newOwner,\r\n        address recipt\r\n    );\r\n\r\n    constructor(\r\n        ItemManager _parentContract,\r\n        address _owner,\r\n        string memory _name,\r\n        string memory _specifications,\r\n        string memory _rawDataUrl,\r\n        bytes32 _rawDataHash,\r\n        uint256 _price,\r\n        uint256 _indexInParentContract\r\n    ) {\r\n        parentContract = _parentContract;\r\n        owner = _owner;\r\n        name = _name;\r\n        specifications = _specifications;\r\n        rawDataUrl = _rawDataUrl;\r\n        rawDataHash = _rawDataHash;\r\n        price = _price;\r\n        indexInParentContract = _indexInParentContract;\r\n    }\r\n\r\n    function changePrice(uint256 _newPrice) public {\r\n        require(\r\n            owner == _msgSender() || address(parentContract) == _msgSender(),\r\n            \"Item: caller is not the owner or parent contract\"\r\n        );\r\n        price = _newPrice;\r\n    }\r\n\r\n    function giveOwnershipTo(address _newOwner) public {\r\n        require(_newOwner != address(0), \"Ownable: new owner is the zero address\");\r\n        require(price == 0, \"Item: this Item is for sale\");\r\n        address oldOwner = owner;\r\n        owner = _newOwner;\r\n        emit OwnershipTransferred(oldOwner, _newOwner, address(0));\r\n    }\r\n\r\n    function transferOwnership(address _newOwner, address _recipt) public {\r\n        require(\r\n            address(parentContract) == _msgSender(),\r\n            \"Item: caller is not the owner or parent contract\"\r\n        );\r\n        address oldOwner = owner;\r\n        owner = _newOwner;\r\n        price = 0;\r\n        emit OwnershipTransferred(oldOwner, _newOwner, _recipt);\r\n    }\r\n\r\n    receive() external payable {\r\n        require(price > 0, \"Item: this Item is not for sale\");\r\n        require(price == msg.value, \"Item: only full payments accepted\");\r\n        parentContract.triggerPayment{value: msg.value}(\r\n            indexInParentContract,\r\n            _msgSender(),\r\n            owner\r\n        );\r\n    }\r\n\r\n    fallback() external payable {}\r\n}\r\n",
  "sourcePath": "D:\\Office\\DAPP\\Blockchain1Laps\\blockchain01\\contracts\\Item.sol",
  "compiler": {
    "name": "solc",
    "version": "0.8.11+commit.d7f03943.Emscripten.clang"
  },
  "schemaVersion": "3.4.3",
  "updatedAt": "2022-02-19T10:02:23.326Z",
  "devdoc": {
    "kind": "dev",
    "methods": {},
    "version": 1
  },
  "userdoc": {
    "kind": "user",
    "methods": {},
    "version": 1
  }
}