{
  "contractName": "Order",
  "abi": [
    {
      "inputs": [
        {
          "internalType": "address",
          "name": "_purchaser",
          "type": "address"
        },
        {
          "internalType": "address",
          "name": "_seller",
          "type": "address"
        },
        {
          "internalType": "contract Item",
          "name": "_itemContract",
          "type": "address"
        }
      ],
      "stateMutability": "payable",
      "type": "constructor"
    },
    {
      "anonymous": false,
      "inputs": [
        {
          "indexed": false,
          "internalType": "address",
          "name": "sender",
          "type": "address"
        },
        {
          "indexed": false,
          "internalType": "uint8",
          "name": "state",
          "type": "uint8"
        },
        {
          "indexed": false,
          "internalType": "uint64",
          "name": "deadline",
          "type": "uint64"
        }
      ],
      "name": "OrderStateChanged",
      "type": "event"
    },
    {
      "inputs": [],
      "name": "itemContract",
      "outputs": [
        {
          "internalType": "contract Item",
          "name": "",
          "type": "address"
        }
      ],
      "stateMutability": "view",
      "type": "function"
    },
    {
      "inputs": [],
      "name": "purchaser",
      "outputs": [
        {
          "internalType": "address",
          "name": "",
          "type": "address"
        }
      ],
      "stateMutability": "view",
      "type": "function"
    },
    {
      "inputs": [],
      "name": "seller",
      "outputs": [
        {
          "internalType": "address",
          "name": "",
          "type": "address"
        }
      ],
      "stateMutability": "view",
      "type": "function"
    },
    {
      "inputs": [],
      "name": "state",
      "outputs": [
        {
          "internalType": "enum Order.OrderState",
          "name": "",
          "type": "uint8"
        }
      ],
      "stateMutability": "view",
      "type": "function"
    },
    {
      "inputs": [],
      "name": "triggerConfirm",
      "outputs": [],
      "stateMutability": "nonpayable",
      "type": "function"
    },
    {
      "inputs": [],
      "name": "triggerShipping",
      "outputs": [],
      "stateMutability": "nonpayable",
      "type": "function"
    },
    {
      "inputs": [],
      "name": "triggerReceived",
      "outputs": [],
      "stateMutability": "nonpayable",
      "type": "function"
    },
    {
      "inputs": [],
      "name": "triggerCancel",
      "outputs": [],
      "stateMutability": "nonpayable",
      "type": "function"
    },
    {
      "inputs": [],
      "name": "getBalance",
      "outputs": [
        {
          "internalType": "uint256",
          "name": "",
          "type": "uint256"
        }
      ],
      "stateMutability": "view",
      "type": "function"
    },
    {
      "inputs": [],
      "name": "getDeadline",
      "outputs": [
        {
          "internalType": "uint64",
          "name": "",
          "type": "uint64"
        }
      ],
      "stateMutability": "view",
      "type": "function"
    }
  ],
  "bytecode": "0x608060405260405162001c4738038062001c478339818101604052810190620000299190620002be565b600062015180426200003c919062000353565b905062000059816000620001c460201b62000efb1790919060201c565b83600160006101000a81548173ffffffffffffffffffffffffffffffffffffffff021916908373ffffffffffffffffffffffffffffffffffffffff16021790555082600260006101000a81548173ffffffffffffffffffffffffffffffffffffffff021916908373ffffffffffffffffffffffffffffffffffffffff16021790555081600360006101000a81548173ffffffffffffffffffffffffffffffffffffffff021916908373ffffffffffffffffffffffffffffffffffffffff1602179055506000600360146101000a81548160ff02191690836004811115620001455762000144620003b0565b5b02179055507f6e9eb88a2b4685b02dacc5a724c248755eee555f7f388e9aadab99236cc7b3de6200017b620001f360201b60201c565b600360149054906101000a900460ff166004811115620001a0576200019f620003b0565b5b83604051620001b29392919062000433565b60405180910390a15050505062000470565b808260000160006101000a81548167ffffffffffffffff021916908367ffffffffffffffff1602179055505050565b600033905090565b600080fd5b600073ffffffffffffffffffffffffffffffffffffffff82169050919050565b60006200022d8262000200565b9050919050565b6200023f8162000220565b81146200024b57600080fd5b50565b6000815190506200025f8162000234565b92915050565b6000620002728262000200565b9050919050565b6000620002868262000265565b9050919050565b620002988162000279565b8114620002a457600080fd5b50565b600081519050620002b8816200028d565b92915050565b600080600060608486031215620002da57620002d9620001fb565b5b6000620002ea868287016200024e565b9350506020620002fd868287016200024e565b92505060406200031086828701620002a7565b9150509250925092565b6000819050919050565b7f4e487b7100000000000000000000000000000000000000000000000000000000600052601160045260246000fd5b600062000360826200031a565b91506200036d836200031a565b9250827fffffffffffffffffffffffffffffffffffffffffffffffffffffffffffffffff03821115620003a557620003a462000324565b5b828201905092915050565b7f4e487b7100000000000000000000000000000000000000000000000000000000600052602160045260246000fd5b620003ea8162000220565b82525050565b600060ff82169050919050565b6200040881620003f0565b82525050565b600067ffffffffffffffff82169050919050565b6200042d816200040e565b82525050565b60006060820190506200044a6000830186620003df565b620004596020830185620003fd565b62000468604083018462000422565b949350505050565b6117c780620004806000396000f3fe608060405234801561001057600080fd5b506004361061009e5760003560e01c80634194d32a116100665780634194d32a146100fd5780635a77dc46146101075780635f8d96de146101255780638d76f94014610143578063c19d93fb146101615761009e565b80630656e748146100a357806308551a53146100ad578063099a99f7146100cb5780631081b97a146100d557806312065fe0146100df575b600080fd5b6100ab61017f565b005b6100b56103ca565b6040516100c29190611010565b60405180910390f35b6100d36103f0565b005b6100dd61063b565b005b6100e7610a5c565b6040516100f49190611044565b60405180910390f35b610105610a64565b005b61010f610e4e565b60405161011c9190611010565b60405180910390f35b61012d610e74565b60405161013a9190611082565b60405180910390f35b61014b610ec2565b60405161015891906110fc565b60405180910390f35b610169610ee8565b604051610176919061118e565b60405180910390f35b610187610f2a565b73ffffffffffffffffffffffffffffffffffffffff16600260009054906101000a900473ffffffffffffffffffffffffffffffffffffffff1673ffffffffffffffffffffffffffffffffffffffff1614610216576040517f08c379a000000000000000000000000000000000000000000000000000000000815260040161020d90611206565b60405180910390fd5b61025d60006040518060200160405290816000820160009054906101000a900467ffffffffffffffff1667ffffffffffffffff1667ffffffffffffffff1681525050610f32565b61029c576040517f08c379a000000000000000000000000000000000000000000000000000000000815260040161029390611272565b60405180910390fd5b600160048111156102b0576102af611117565b5b600360149054906101000a900460ff1660048111156102d2576102d1611117565b5b14610312576040517f08c379a000000000000000000000000000000000000000000000000000000000815260040161030990611304565b60405180910390fd5b600062093a80426103239190611353565b9050610339816000610efb90919063ffffffff16565b6002600360146101000a81548160ff0219169083600481111561035f5761035e611117565b5b02179055507f6e9eb88a2b4685b02dacc5a724c248755eee555f7f388e9aadab99236cc7b3de61038d610f2a565b600360149054906101000a900460ff1660048111156103af576103ae611117565b5b836040516103bf939291906113c5565b60405180910390a150565b600260009054906101000a900473ffffffffffffffffffffffffffffffffffffffff1681565b6103f8610f2a565b73ffffffffffffffffffffffffffffffffffffffff16600260009054906101000a900473ffffffffffffffffffffffffffffffffffffffff1673ffffffffffffffffffffffffffffffffffffffff1614610487576040517f08c379a000000000000000000000000000000000000000000000000000000000815260040161047e90611206565b60405180910390fd5b6104ce60006040518060200160405290816000820160009054906101000a900467ffffffffffffffff1667ffffffffffffffff1667ffffffffffffffff1681525050610f32565b61050d576040517f08c379a000000000000000000000000000000000000000000000000000000000815260040161050490611272565b60405180910390fd5b6000600481111561052157610520611117565b5b600360149054906101000a900460ff16600481111561054357610542611117565b5b14610583576040517f08c379a000000000000000000000000000000000000000000000000000000000815260040161057a9061146e565b60405180910390fd5b60006202a300426105949190611353565b90506105aa816000610efb90919063ffffffff16565b6001600360146101000a81548160ff021916908360048111156105d0576105cf611117565b5b02179055507f6e9eb88a2b4685b02dacc5a724c248755eee555f7f388e9aadab99236cc7b3de6105fe610f2a565b600360149054906101000a900460ff1660048111156106205761061f611117565b5b83604051610630939291906113c5565b60405180910390a150565b610643610f2a565b73ffffffffffffffffffffffffffffffffffffffff16600160009054906101000a900473ffffffffffffffffffffffffffffffffffffffff1673ffffffffffffffffffffffffffffffffffffffff16146106d2576040517f08c379a00000000000000000000000000000000000000000000000000000000081526004016106c990611500565b60405180910390fd5b61071960006040518060200160405290816000820160009054906101000a900467ffffffffffffffff1667ffffffffffffffff1667ffffffffffffffff1681525050610f32565b610758576040517f08c379a000000000000000000000000000000000000000000000000000000000815260040161074f90611272565b60405180910390fd5b6002600481111561076c5761076b611117565b5b600360149054906101000a900460ff16600481111561078e5761078d611117565b5b146107ce576040517f08c379a00000000000000000000000000000000000000000000000000000000081526004016107c590611592565b60405180910390fd5b6107d86000610f4c565b600360009054906101000a900473ffffffffffffffffffffffffffffffffffffffff1673ffffffffffffffffffffffffffffffffffffffff1663230b9da36040518163ffffffff1660e01b8152600401602060405180830381865afa158015610845573d6000803e3d6000fd5b505050506040513d601f19601f820116820180604052508101906108699190611607565b73ffffffffffffffffffffffffffffffffffffffff1663c2601eb9600360009054906101000a900473ffffffffffffffffffffffffffffffffffffffff1673ffffffffffffffffffffffffffffffffffffffff166363fbab486040518163ffffffff1660e01b8152600401602060405180830381865afa1580156108f1573d6000803e3d6000fd5b505050506040513d601f19601f820116820180604052508101906109159190611660565b6040518263ffffffff1660e01b81526004016109319190611044565b600060405180830381600087803b15801561094b57600080fd5b505af115801561095f573d6000803e3d6000fd5b50505050600260009054906101000a900473ffffffffffffffffffffffffffffffffffffffff1673ffffffffffffffffffffffffffffffffffffffff166108fc479081150290604051600060405180830381858888f193505050501580156109cb573d6000803e3d6000fd5b5060038060146101000a81548160ff021916908360048111156109f1576109f0611117565b5b02179055507f6e9eb88a2b4685b02dacc5a724c248755eee555f7f388e9aadab99236cc7b3de610a1f610f2a565b600360149054906101000a900460ff166004811115610a4157610a40611117565b5b6000604051610a52939291906116c8565b60405180910390a1565b600047905090565b610a6c610f2a565b73ffffffffffffffffffffffffffffffffffffffff16600160009054906101000a900473ffffffffffffffffffffffffffffffffffffffff1673ffffffffffffffffffffffffffffffffffffffff1614610afb576040517f08c379a0000000000000000000000000000000000000000000000000000000008152600401610af290611500565b60405180910390fd5b60006004811115610b0f57610b0e611117565b5b600360149054906101000a900460ff166004811115610b3157610b30611117565b5b1480610b805750610b7f60006040518060200160405290816000820160009054906101000a900467ffffffffffffffff1667ffffffffffffffff1667ffffffffffffffff1681525050610f7b565b5b610bbf576040517f08c379a0000000000000000000000000000000000000000000000000000000008152600401610bb690611771565b60405180910390fd5b610bc96000610f4c565b6004600360146101000a81548160ff02191690836004811115610bef57610bee611117565b5b0217905550600360009054906101000a900473ffffffffffffffffffffffffffffffffffffffff1673ffffffffffffffffffffffffffffffffffffffff1663230b9da36040518163ffffffff1660e01b8152600401602060405180830381865afa158015610c61573d6000803e3d6000fd5b505050506040513d601f19601f82011682018060405250810190610c859190611607565b73ffffffffffffffffffffffffffffffffffffffff1663574bd60c600360009054906101000a900473ffffffffffffffffffffffffffffffffffffffff1673ffffffffffffffffffffffffffffffffffffffff166363fbab486040518163ffffffff1660e01b8152600401602060405180830381865afa158015610d0d573d6000803e3d6000fd5b505050506040513d601f19601f82011682018060405250810190610d319190611660565b6040518263ffffffff1660e01b8152600401610d4d9190611044565b600060405180830381600087803b158015610d6757600080fd5b505af1158015610d7b573d6000803e3d6000fd5b50505050600160009054906101000a900473ffffffffffffffffffffffffffffffffffffffff1673ffffffffffffffffffffffffffffffffffffffff166108fc479081150290604051600060405180830381858888f19350505050158015610de7573d6000803e3d6000fd5b507f6e9eb88a2b4685b02dacc5a724c248755eee555f7f388e9aadab99236cc7b3de610e11610f2a565b600360149054906101000a900460ff166004811115610e3357610e32611117565b5b6000604051610e44939291906116c8565b60405180910390a1565b600160009054906101000a900473ffffffffffffffffffffffffffffffffffffffff1681565b6000610ebd60006040518060200160405290816000820160009054906101000a900467ffffffffffffffff1667ffffffffffffffff1667ffffffffffffffff1681525050610fa7565b905090565b600360009054906101000a900473ffffffffffffffffffffffffffffffffffffffff1681565b600360149054906101000a900460ff1681565b808260000160006101000a81548167ffffffffffffffff021916908367ffffffffffffffff1602179055505050565b600033905090565b600042826000015167ffffffffffffffff16119050919050565b60008160000160006101000a81548167ffffffffffffffff021916908367ffffffffffffffff16021790555050565b6000610f8682610fb5565b8015610fa0575042826000015167ffffffffffffffff1611155b9050919050565b600081600001519050919050565b600080826000015167ffffffffffffffff16119050919050565b600073ffffffffffffffffffffffffffffffffffffffff82169050919050565b6000610ffa82610fcf565b9050919050565b61100a81610fef565b82525050565b60006020820190506110256000830184611001565b92915050565b6000819050919050565b61103e8161102b565b82525050565b60006020820190506110596000830184611035565b92915050565b600067ffffffffffffffff82169050919050565b61107c8161105f565b82525050565b60006020820190506110976000830184611073565b92915050565b6000819050919050565b60006110c26110bd6110b884610fcf565b61109d565b610fcf565b9050919050565b60006110d4826110a7565b9050919050565b60006110e6826110c9565b9050919050565b6110f6816110db565b82525050565b600060208201905061111160008301846110ed565b92915050565b7f4e487b7100000000000000000000000000000000000000000000000000000000600052602160045260246000fd5b6005811061115757611156611117565b5b50565b600081905061116882611146565b919050565b60006111788261115a565b9050919050565b6111888161116d565b82525050565b60006020820190506111a3600083018461117f565b92915050565b600082825260208201905092915050565b7f4f726465723a2063616c6c6572206973206e6f74207468652073656c6c657200600082015250565b60006111f0601f836111a9565b91506111fb826111ba565b602082019050919050565b6000602082019050818103600083015261121f816111e3565b9050919050565b7f4f726465723a207472616e73616374696f6e2069732065787069726564000000600082015250565b600061125c601d836111a9565b915061126782611226565b602082019050919050565b6000602082019050818103600083015261128b8161124f565b9050919050565b7f4f726465723a207374617465206d7573742062652022436f6e6669726d65642260008201527f20746f2074726967676572207368697070696e67000000000000000000000000602082015250565b60006112ee6034836111a9565b91506112f982611292565b604082019050919050565b6000602082019050818103600083015261131d816112e1565b9050919050565b7f4e487b7100000000000000000000000000000000000000000000000000000000600052601160045260246000fd5b600061135e8261102b565b91506113698361102b565b9250827fffffffffffffffffffffffffffffffffffffffffffffffffffffffffffffffff0382111561139e5761139d611324565b5b828201905092915050565b600060ff82169050919050565b6113bf816113a9565b82525050565b60006060820190506113da6000830186611001565b6113e760208301856113b6565b6113f46040830184611073565b949350505050565b7f4f726465723a207374617465206d7573742062652022506c616365642220746f60008201527f207472696767657220636f6e6669726d00000000000000000000000000000000602082015250565b60006114586030836111a9565b9150611463826113fc565b604082019050919050565b600060208201905081810360008301526114878161144b565b9050919050565b7f4f726465723a2063616c6c6572206973206e6f7420746865207075726368617360008201527f6572000000000000000000000000000000000000000000000000000000000000602082015250565b60006114ea6022836111a9565b91506114f58261148e565b604082019050919050565b60006020820190508181036000830152611519816114dd565b9050919050565b7f4f726465723a207374617465206d75737420626520225368697070696e67222060008201527f746f205265636569766564000000000000000000000000000000000000000000602082015250565b600061157c602b836111a9565b915061158782611520565b604082019050919050565b600060208201905081810360008301526115ab8161156f565b9050919050565b600080fd5b60006115c282610fcf565b9050919050565b60006115d4826115b7565b9050919050565b6115e4816115c9565b81146115ef57600080fd5b50565b600081519050611601816115db565b92915050565b60006020828403121561161d5761161c6115b2565b5b600061162b848285016115f2565b91505092915050565b61163d8161102b565b811461164857600080fd5b50565b60008151905061165a81611634565b92915050565b600060208284031215611676576116756115b2565b5b60006116848482850161164b565b91505092915050565b6000819050919050565b60006116b26116ad6116a88461168d565b61109d565b61105f565b9050919050565b6116c281611697565b82525050565b60006060820190506116dd6000830186611001565b6116ea60208301856113b6565b6116f760408301846116b9565b949350505050565b7f4f726465723a207472616e73616374696f6e2069732070656e64696e67206f7260008201527f2064656c6976657265642c2063616e206e6f742063616e63656c206e6f770000602082015250565b600061175b603e836111a9565b9150611766826116ff565b604082019050919050565b6000602082019050818103600083015261178a8161174e565b905091905056fea2646970667358221220cbf9f69cfa21a64aab8ee81b55c35aa542694275e43bd59ff03daa702bfa03fa64736f6c634300080b0033",
  "immutableReferences": {},
  "source": "// SPDX-License-Identifier: MIT\r\n\r\npragma solidity ^0.8.11;\r\n\r\nimport \"./Context.sol\";\r\nimport \"./Timers.sol\";\r\nimport \"./Item.sol\";\r\nimport \"./ItemManager.sol\";\r\n\r\ncontract Order is Context {\r\n    using Timers for Timers.Timestamp;\r\n\r\n    Timers.Timestamp private _timer;\r\n    // address public shipper;\r\n    address public purchaser;\r\n    address public seller;\r\n    Item public itemContract;\r\n    Order.OrderState public state;\r\n\r\n    enum OrderState {\r\n        Placed,\r\n        Confirmed,\r\n        Shipping,\r\n        Received,\r\n        Cancelled\r\n    }\r\n\r\n    event OrderStateChanged(address sender, uint8 state, uint64 deadline);\r\n\r\n    constructor(\r\n        address _purchaser,\r\n        address _seller,\r\n        Item _itemContract\r\n    ) payable {\r\n        // 24 hours equal to 86400 seconds\r\n        uint64 deadline = uint64(block.timestamp + 86400);\r\n        _timer.setDeadline(deadline);\r\n        purchaser = _purchaser;\r\n        seller = _seller;\r\n        itemContract = _itemContract;\r\n        state = OrderState.Placed;\r\n        emit OrderStateChanged(_msgSender(), uint8(state), deadline);\r\n    }\r\n\r\n    modifier onlySeller() {\r\n        require(seller == _msgSender(), \"Order: caller is not the seller\");\r\n        _;\r\n    }\r\n\r\n    modifier onlyPurchaser() {\r\n        require(\r\n            purchaser == _msgSender(),\r\n            \"Order: caller is not the purchaser\"\r\n        );\r\n        _;\r\n    }\r\n\r\n    // modifier onlyShipper() {\r\n    //     require(shipper == _msgSender(), \"Order: caller is not the purchaser\");\r\n    //     _;\r\n    // }\r\n\r\n    modifier isPending() {\r\n        require(_timer.isPending(), \"Order: transaction is expired\");\r\n        _;\r\n    }\r\n\r\n    function triggerConfirm() public onlySeller isPending {\r\n        require(\r\n            state == OrderState.Placed,\r\n            'Order: state must be \"Placed\" to trigger confirm'\r\n        );\r\n        // 48 hours equal to 172800 seconds\r\n        uint64 deadline = uint64(block.timestamp + 172800);\r\n        _timer.setDeadline(deadline);\r\n        state = OrderState.Confirmed;\r\n        emit OrderStateChanged(_msgSender(), uint8(state), deadline);\r\n    }\r\n\r\n    function triggerShipping()\r\n        public\r\n        // onlyShipper\r\n        onlySeller\r\n        isPending\r\n    {\r\n        require(\r\n            state == OrderState.Confirmed,\r\n            'Order: state must be \"Confirmed\" to trigger shipping'\r\n        );\r\n        // 7 days equal to 604800 seconds\r\n        uint64 deadline = uint64(block.timestamp + 604800);\r\n        _timer.setDeadline(deadline);\r\n        state = OrderState.Shipping;\r\n        emit OrderStateChanged(_msgSender(), uint8(state), deadline);\r\n    }\r\n\r\n    function triggerReceived() public onlyPurchaser isPending {\r\n        require(\r\n            state == OrderState.Shipping,\r\n            'Order: state must be \"Shipping\" to Received'\r\n        );\r\n        _timer.reset();\r\n\r\n        itemContract.parentContract().triggerDelivered(itemContract.indexInParentContract());\r\n        payable(seller).transfer(address(this).balance);\r\n        state = OrderState.Received;\r\n        emit OrderStateChanged(_msgSender(), uint8(state), 0);\r\n    }\r\n\r\n    function triggerCancel() public onlyPurchaser {\r\n        require(\r\n            state == OrderState.Placed || _timer.isExpired(),\r\n            \"Order: transaction is pending or delivered, can not cancel now\"\r\n        );\r\n        _timer.reset();\r\n        state = OrderState.Cancelled;\r\n        itemContract.parentContract().triggerCancel(itemContract.indexInParentContract());\r\n        payable(purchaser).transfer(address(this).balance);\r\n        emit OrderStateChanged(_msgSender(), uint8(state), 0);\r\n    }\r\n\r\n    function getBalance() public view returns (uint256) {\r\n        return address(this).balance;\r\n    }\r\n\r\n    function getDeadline() public view returns (uint64) {\r\n        return _timer.getDeadline();\r\n    }\r\n}\r\n",
  "sourcePath": "D:\\Office\\DAPP\\Blockchain1Laps\\blockchain01\\contracts\\Order.sol",
  "compiler": {
    "name": "solc",
    "version": "0.8.11+commit.d7f03943.Emscripten.clang"
  },
  "schemaVersion": "3.4.3",
  "updatedAt": "2022-02-21T19:43:12.625Z",
  "devdoc": {
    "kind": "dev",
    "methods": {},
    "version": 1
  },
  "userdoc": {
    "kind": "user",
    "methods": {},
    "version": 1
  }
}