{
  "contractName": "Item",
  "abi": [
    {
      "inputs": [
        {
          "internalType": "contract ItemManager",
          "name": "_parentContract",
          "type": "address"
        },
        {
          "internalType": "address",
          "name": "_owner",
          "type": "address"
        },
        {
          "internalType": "string",
          "name": "_name",
          "type": "string"
        },
        {
          "internalType": "string",
          "name": "_specifications",
          "type": "string"
        },
        {
          "internalType": "bytes32",
          "name": "_rawDataHash",
          "type": "bytes32"
        },
        {
          "internalType": "uint256",
          "name": "_price",
          "type": "uint256"
        },
        {
          "internalType": "uint256",
          "name": "_indexInParentContract",
          "type": "uint256"
        }
      ],
      "stateMutability": "nonpayable",
      "type": "constructor"
    },
    {
      "anonymous": false,
      "inputs": [
        {
          "indexed": true,
          "internalType": "address",
          "name": "previousOwner",
          "type": "address"
        },
        {
          "indexed": true,
          "internalType": "address",
          "name": "newOwner",
          "type": "address"
        },
        {
          "indexed": false,
          "internalType": "address",
          "name": "recipt",
          "type": "address"
        }
      ],
      "name": "OwnershipTransferred",
      "type": "event"
    },
    {
      "stateMutability": "payable",
      "type": "fallback"
    },
    {
      "inputs": [],
      "name": "indexInParentContract",
      "outputs": [
        {
          "internalType": "uint256",
          "name": "",
          "type": "uint256"
        }
      ],
      "stateMutability": "view",
      "type": "function"
    },
    {
      "inputs": [],
      "name": "name",
      "outputs": [
        {
          "internalType": "string",
          "name": "",
          "type": "string"
        }
      ],
      "stateMutability": "view",
      "type": "function"
    },
    {
      "inputs": [],
      "name": "owner",
      "outputs": [
        {
          "internalType": "address",
          "name": "",
          "type": "address"
        }
      ],
      "stateMutability": "view",
      "type": "function"
    },
    {
      "inputs": [],
      "name": "parentContract",
      "outputs": [
        {
          "internalType": "contract ItemManager",
          "name": "",
          "type": "address"
        }
      ],
      "stateMutability": "view",
      "type": "function"
    },
    {
      "inputs": [],
      "name": "price",
      "outputs": [
        {
          "internalType": "uint256",
          "name": "",
          "type": "uint256"
        }
      ],
      "stateMutability": "view",
      "type": "function"
    },
    {
      "inputs": [],
      "name": "rawDataHash",
      "outputs": [
        {
          "internalType": "bytes32",
          "name": "",
          "type": "bytes32"
        }
      ],
      "stateMutability": "view",
      "type": "function"
    },
    {
      "inputs": [],
      "name": "specifications",
      "outputs": [
        {
          "internalType": "string",
          "name": "",
          "type": "string"
        }
      ],
      "stateMutability": "view",
      "type": "function"
    },
    {
      "stateMutability": "payable",
      "type": "receive"
    },
    {
      "inputs": [
        {
          "internalType": "uint256",
          "name": "_newPrice",
          "type": "uint256"
        }
      ],
      "name": "changePrice",
      "outputs": [],
      "stateMutability": "nonpayable",
      "type": "function"
    },
    {
      "inputs": [
        {
          "internalType": "address",
          "name": "_newOwner",
          "type": "address"
        }
      ],
      "name": "giveOwnershipTo",
      "outputs": [],
      "stateMutability": "nonpayable",
      "type": "function"
    },
    {
      "inputs": [
        {
          "internalType": "address",
          "name": "_newOwner",
          "type": "address"
        },
        {
          "internalType": "address",
          "name": "_recipt",
          "type": "address"
        }
      ],
      "name": "transferOwnership",
      "outputs": [],
      "stateMutability": "nonpayable",
      "type": "function"
    }
  ],
  "bytecode": "0x60806040523480156200001157600080fd5b506040516200153d3803806200153d83398181016040528101906200003791906200048d565b866000806101000a81548173ffffffffffffffffffffffffffffffffffffffff021916908373ffffffffffffffffffffffffffffffffffffffff16021790555085600160006101000a81548173ffffffffffffffffffffffffffffffffffffffff021916908373ffffffffffffffffffffffffffffffffffffffff1602179055508460039080519060200190620000d09291906200010c565b508360049080519060200190620000e99291906200010c565b5082600281905550816006819055508060058190555050505050505050620005e3565b8280546200011a90620005ad565b90600052602060002090601f0160209004810192826200013e57600085556200018a565b82601f106200015957805160ff19168380011785556200018a565b828001600101855582156200018a579182015b82811115620001895782518255916020019190600101906200016c565b5b5090506200019991906200019d565b5090565b5b80821115620001b85760008160009055506001016200019e565b5090565b6000604051905090565b600080fd5b600080fd5b600073ffffffffffffffffffffffffffffffffffffffff82169050919050565b6000620001fd82620001d0565b9050919050565b60006200021182620001f0565b9050919050565b620002238162000204565b81146200022f57600080fd5b50565b600081519050620002438162000218565b92915050565b60006200025682620001d0565b9050919050565b620002688162000249565b81146200027457600080fd5b50565b60008151905062000288816200025d565b92915050565b600080fd5b600080fd5b6000601f19601f8301169050919050565b7f4e487b7100000000000000000000000000000000000000000000000000000000600052604160045260246000fd5b620002e38262000298565b810181811067ffffffffffffffff82111715620003055762000304620002a9565b5b80604052505050565b60006200031a620001bc565b9050620003288282620002d8565b919050565b600067ffffffffffffffff8211156200034b576200034a620002a9565b5b620003568262000298565b9050602081019050919050565b60005b838110156200038357808201518184015260208101905062000366565b8381111562000393576000848401525b50505050565b6000620003b0620003aa846200032d565b6200030e565b905082815260208101848484011115620003cf57620003ce62000293565b5b620003dc84828562000363565b509392505050565b600082601f830112620003fc57620003fb6200028e565b5b81516200040e84826020860162000399565b91505092915050565b6000819050919050565b6200042c8162000417565b81146200043857600080fd5b50565b6000815190506200044c8162000421565b92915050565b6000819050919050565b620004678162000452565b81146200047357600080fd5b50565b60008151905062000487816200045c565b92915050565b600080600080600080600060e0888a031215620004af57620004ae620001c6565b5b6000620004bf8a828b0162000232565b9750506020620004d28a828b0162000277565b965050604088015167ffffffffffffffff811115620004f657620004f5620001cb565b5b620005048a828b01620003e4565b955050606088015167ffffffffffffffff811115620005285762000527620001cb565b5b620005368a828b01620003e4565b9450506080620005498a828b016200043b565b93505060a06200055c8a828b0162000476565b92505060c06200056f8a828b0162000476565b91505092959891949750929550565b7f4e487b7100000000000000000000000000000000000000000000000000000000600052602260045260246000fd5b60006002820490506001821680620005c657607f821691505b60208210811415620005dd57620005dc6200057e565b5b50919050565b610f4a80620005f36000396000f3fe6080604052600436106100955760003560e01c80636a956afd116100595780636a956afd146102b95780636d435421146102e25780638da5cb5b1461030b578063a035b1fe14610336578063a2b40d1914610361576101e0565b806306fdde03146101e25780631b2e320c1461020d578063230b9da314610238578063470dd8321461026357806363fbab481461028e576101e0565b366101e0576000600654116100df576040517f08c379a00000000000000000000000000000000000000000000000000000000081526004016100d69061095b565b60405180910390fd5b3460065414610123576040517f08c379a000000000000000000000000000000000000000000000000000000000815260040161011a906109ed565b60405180910390fd5b60008054906101000a900473ffffffffffffffffffffffffffffffffffffffff1673ffffffffffffffffffffffffffffffffffffffff1663d33a0cf43460055461016b61038a565b600160009054906101000a900473ffffffffffffffffffffffffffffffffffffffff166040518563ffffffff1660e01b81526004016101ac93929190610a67565b6000604051808303818588803b1580156101c557600080fd5b505af11580156101d9573d6000803e3d6000fd5b5050505050005b005b3480156101ee57600080fd5b506101f7610392565b6040516102049190610b26565b60405180910390f35b34801561021957600080fd5b50610222610420565b60405161022f9190610b61565b60405180910390f35b34801561024457600080fd5b5061024d610426565b60405161025a9190610bdb565b60405180910390f35b34801561026f57600080fd5b5061027861044a565b6040516102859190610b26565b60405180910390f35b34801561029a57600080fd5b506102a36104d8565b6040516102b09190610bf6565b60405180910390f35b3480156102c557600080fd5b506102e060048036038101906102db9190610c42565b6104de565b005b3480156102ee57600080fd5b5061030960048036038101906103049190610c6f565b610665565b005b34801561031757600080fd5b506103206107d4565b60405161032d9190610caf565b60405180910390f35b34801561034257600080fd5b5061034b6107fa565b6040516103589190610bf6565b60405180910390f35b34801561036d57600080fd5b5061038860048036038101906103839190610cf6565b610800565b005b600033905090565b6003805461039f90610d52565b80601f01602080910402602001604051908101604052809291908181526020018280546103cb90610d52565b80156104185780601f106103ed57610100808354040283529160200191610418565b820191906000526020600020905b8154815290600101906020018083116103fb57829003601f168201915b505050505081565b60025481565b60008054906101000a900473ffffffffffffffffffffffffffffffffffffffff1681565b6004805461045790610d52565b80601f016020809104026020016040519081016040528092919081815260200182805461048390610d52565b80156104d05780601f106104a5576101008083540402835291602001916104d0565b820191906000526020600020905b8154815290600101906020018083116104b357829003601f168201915b505050505081565b60055481565b600073ffffffffffffffffffffffffffffffffffffffff168173ffffffffffffffffffffffffffffffffffffffff16141561054e576040517f08c379a000000000000000000000000000000000000000000000000000000000815260040161054590610df6565b60405180910390fd5b600060065414610593576040517f08c379a000000000000000000000000000000000000000000000000000000000815260040161058a90610e62565b60405180910390fd5b6000600160009054906101000a900473ffffffffffffffffffffffffffffffffffffffff16905081600160006101000a81548173ffffffffffffffffffffffffffffffffffffffff021916908373ffffffffffffffffffffffffffffffffffffffff1602179055508173ffffffffffffffffffffffffffffffffffffffff168173ffffffffffffffffffffffffffffffffffffffff167fc8894f26f396ce8c004245c8b7cd1b92103a6e4302fcbab883987149ac01b7ec60006040516106599190610caf565b60405180910390a35050565b61066d61038a565b73ffffffffffffffffffffffffffffffffffffffff1660008054906101000a900473ffffffffffffffffffffffffffffffffffffffff1673ffffffffffffffffffffffffffffffffffffffff16146106fa576040517f08c379a00000000000000000000000000000000000000000000000000000000081526004016106f190610ef4565b60405180910390fd5b6000600160009054906101000a900473ffffffffffffffffffffffffffffffffffffffff16905082600160006101000a81548173ffffffffffffffffffffffffffffffffffffffff021916908373ffffffffffffffffffffffffffffffffffffffff16021790555060006006819055508273ffffffffffffffffffffffffffffffffffffffff168173ffffffffffffffffffffffffffffffffffffffff167fc8894f26f396ce8c004245c8b7cd1b92103a6e4302fcbab883987149ac01b7ec846040516107c79190610caf565b60405180910390a3505050565b600160009054906101000a900473ffffffffffffffffffffffffffffffffffffffff1681565b60065481565b61080861038a565b73ffffffffffffffffffffffffffffffffffffffff16600160009054906101000a900473ffffffffffffffffffffffffffffffffffffffff1673ffffffffffffffffffffffffffffffffffffffff1614806108b5575061086661038a565b73ffffffffffffffffffffffffffffffffffffffff1660008054906101000a900473ffffffffffffffffffffffffffffffffffffffff1673ffffffffffffffffffffffffffffffffffffffff16145b6108f4576040517f08c379a00000000000000000000000000000000000000000000000000000000081526004016108eb90610ef4565b60405180910390fd5b8060068190555050565b600082825260208201905092915050565b7f4974656d3a2074686973204974656d206973206e6f7420666f722073616c6500600082015250565b6000610945601f836108fe565b91506109508261090f565b602082019050919050565b6000602082019050818103600083015261097481610938565b9050919050565b7f4974656d3a206f6e6c792066756c6c207061796d656e7473206163636570746560008201527f6400000000000000000000000000000000000000000000000000000000000000602082015250565b60006109d76021836108fe565b91506109e28261097b565b604082019050919050565b60006020820190508181036000830152610a06816109ca565b9050919050565b6000819050919050565b610a2081610a0d565b82525050565b600073ffffffffffffffffffffffffffffffffffffffff82169050919050565b6000610a5182610a26565b9050919050565b610a6181610a46565b82525050565b6000606082019050610a7c6000830186610a17565b610a896020830185610a58565b610a966040830184610a58565b949350505050565b600081519050919050565b60005b83811015610ac7578082015181840152602081019050610aac565b83811115610ad6576000848401525b50505050565b6000601f19601f8301169050919050565b6000610af882610a9e565b610b0281856108fe565b9350610b12818560208601610aa9565b610b1b81610adc565b840191505092915050565b60006020820190508181036000830152610b408184610aed565b905092915050565b6000819050919050565b610b5b81610b48565b82525050565b6000602082019050610b766000830184610b52565b92915050565b6000819050919050565b6000610ba1610b9c610b9784610a26565b610b7c565b610a26565b9050919050565b6000610bb382610b86565b9050919050565b6000610bc582610ba8565b9050919050565b610bd581610bba565b82525050565b6000602082019050610bf06000830184610bcc565b92915050565b6000602082019050610c0b6000830184610a17565b92915050565b600080fd5b610c1f81610a46565b8114610c2a57600080fd5b50565b600081359050610c3c81610c16565b92915050565b600060208284031215610c5857610c57610c11565b5b6000610c6684828501610c2d565b91505092915050565b60008060408385031215610c8657610c85610c11565b5b6000610c9485828601610c2d565b9250506020610ca585828601610c2d565b9150509250929050565b6000602082019050610cc46000830184610a58565b92915050565b610cd381610a0d565b8114610cde57600080fd5b50565b600081359050610cf081610cca565b92915050565b600060208284031215610d0c57610d0b610c11565b5b6000610d1a84828501610ce1565b91505092915050565b7f4e487b7100000000000000000000000000000000000000000000000000000000600052602260045260246000fd5b60006002820490506001821680610d6a57607f821691505b60208210811415610d7e57610d7d610d23565b5b50919050565b7f4f776e61626c653a206e6577206f776e657220697320746865207a65726f206160008201527f6464726573730000000000000000000000000000000000000000000000000000602082015250565b6000610de06026836108fe565b9150610deb82610d84565b604082019050919050565b60006020820190508181036000830152610e0f81610dd3565b9050919050565b7f4974656d3a2074686973204974656d20697320666f722073616c650000000000600082015250565b6000610e4c601b836108fe565b9150610e5782610e16565b602082019050919050565b60006020820190508181036000830152610e7b81610e3f565b9050919050565b7f4974656d3a2063616c6c6572206973206e6f7420746865206f776e6572206f7260008201527f20706172656e7420636f6e747261637400000000000000000000000000000000602082015250565b6000610ede6030836108fe565b9150610ee982610e82565b604082019050919050565b60006020820190508181036000830152610f0d81610ed1565b905091905056fea2646970667358221220e7d4d8464fec31d4041b1d908e0e792785497af8c30b3de148e15f309ffc582f64736f6c634300080b0033",
  "immutableReferences": {},
  "source": "// SPDX-License-Identifier: MIT\r\npragma solidity ^0.8.11;\r\n\r\nimport \"./Context.sol\";\r\nimport \"./ItemManager.sol\";\r\n\r\ncontract Item is Context {\r\n    ItemManager public parentContract;\r\n    address public owner;\r\n    bytes32 public rawDataHash;\r\n    string public name;\r\n    string public specifications;\r\n    uint256 public indexInParentContract;\r\n    uint256 public price;\r\n\r\n    event OwnershipTransferred(\r\n        address indexed previousOwner,\r\n        address indexed newOwner,\r\n        address recipt\r\n    );\r\n\r\n    constructor(\r\n        ItemManager _parentContract,\r\n        address _owner,\r\n        string memory _name,\r\n        string memory _specifications,\r\n        bytes32 _rawDataHash,\r\n        uint256 _price,\r\n        uint256 _indexInParentContract\r\n    ) {\r\n        parentContract = _parentContract;\r\n        owner = _owner;\r\n        name = _name;\r\n        specifications = _specifications;\r\n        rawDataHash = _rawDataHash;\r\n        price = _price;\r\n        indexInParentContract = _indexInParentContract;\r\n    }\r\n\r\n    function changePrice(uint256 _newPrice) public {\r\n        require(\r\n            owner == _msgSender() || address(parentContract) == _msgSender(),\r\n            \"Item: caller is not the owner or parent contract\"\r\n        );\r\n        price = _newPrice;\r\n    }\r\n\r\n    function giveOwnershipTo(address _newOwner) public {\r\n        require(_newOwner != address(0), \"Ownable: new owner is the zero address\");\r\n        require(price == 0, \"Item: this Item is for sale\");\r\n        address oldOwner = owner;\r\n        owner = _newOwner;\r\n        emit OwnershipTransferred(oldOwner, _newOwner, address(0));\r\n    }\r\n\r\n    function transferOwnership(address _newOwner, address _recipt) public {\r\n        require(\r\n            address(parentContract) == _msgSender(),\r\n            \"Item: caller is not the owner or parent contract\"\r\n        );\r\n        address oldOwner = owner;\r\n        owner = _newOwner;\r\n        price = 0;\r\n        emit OwnershipTransferred(oldOwner, _newOwner, _recipt);\r\n    }\r\n\r\n    receive() external payable {\r\n        require(price > 0, \"Item: this Item is not for sale\");\r\n        require(price == msg.value, \"Item: only full payments accepted\");\r\n        parentContract.triggerPayment{value: msg.value}(\r\n            indexInParentContract,\r\n            _msgSender(),\r\n            owner\r\n        );\r\n    }\r\n\r\n    fallback() external payable {}\r\n}\r\n",
  "sourcePath": "D:\\Office\\DAPP\\Blockchain1Laps\\blockchain01\\contracts\\Item.sol",
  "compiler": {
    "name": "solc",
    "version": "0.8.11+commit.d7f03943.Emscripten.clang"
  },
  "schemaVersion": "3.4.3",
  "updatedAt": "2022-02-20T11:18:21.841Z",
  "devdoc": {
    "kind": "dev",
    "methods": {},
    "version": 1
  },
  "userdoc": {
    "kind": "user",
    "methods": {},
    "version": 1
  }
}